:100000000C94E7040C940F050C940F050C940F0549
:100010000C940F050C940F050C940F050C940F0510
:100020000C940F050C940F050C947E0B0C94ED0BA7
:100030000C940F050C940F050C940F050C940F05F0
:100040000C940F050C940F050C940F050C940F05E0
:100050000C940F050C940F050C940F050C941F0EB7
:100060000C940F050C940F050C940F050C940F05C0
:100070000C940F050C940F050C940F050C940F05B0
:100080000C940F050C940F050C940F050C940F05A0
:100090000C940F050C940F050C940F050C940F0590
:1000A0000C940F050C940F050C940F0530000408F8
:1000B0000000000000000000000000000000000040
:1000C0000000000000000000000000000000000030
:1000D0000000000000000000000000000000000020
:1000E0000000000000000000000000000000000010
:1000F0000000000000000000000000000000000000
:1001000000000000000000000000000000000000EF
:1001100000000000000000000000000000000000DF
:1001200000000000000000000000000000000000CF
:1001300000000000002F0000030003000A1F0A1F38
:10014000042A3F3A22180611162917280003000036
:10015000001E210000211E0005020500081C0800E9
:1001600000201000080808080020000020180601E0
:100170001E29251E223F2000322929261221251A58
:100180000C0A3F08172525191E25251801390503D6
:100190001A25251A0629291E001400002014000023
:1001A0000814220014141414221408000229050251
:1001B0001E212D2E3E09093E3F25251A1E21211202
:1001C0003F21211E3F2525213F0505011E21293AFA
:1001D0003F04043F213F21001021211F3F040A3129
:1001E0003F2020203F02023F3F02043F1E21211EEC
:1001F0003F0909061E21112E3F090936222525191E
:10020000013F01011F20201F0F10201F3F10103F32
:100210003B04043B03043807312D23213F21000018
:1002200001061820013F00000201020020202020CA
:1002300000010200102A2A3C3F2424181C22221408
:100240001824243F1C2A2A2C047E05014C52523EBD
:100250003F040438243D20004040443D3F08142220
:10026000213F20003E04043E3E04023C1C22221C8E
:100270007E22221C1C22227E3E040204242A2A12F0
:10028000021F22201E20201E0E10201E3E10103E97
:10029000360808364E50503E322A262208162100D3
:1002A000003F0000211608000201020100000000CA
:1002B000D5F08D14A1C881CFD9F1AF20004F72695C
:1002C0006720004C6F636174696F6E20000000C08E
:1002D000E0F0F8FCFCFEFEFFFFFFFFFFFFFFFFFF6B
:1002E000FFFEFEFEFCFCF8F8F0F0E0E0C0C080800D
:1002F00000000000000000000000000000000000FE
:1003000000000000000000000000000000000000ED
:1003100000000000000000000000000000000000DD
:1003200000000000000000000000000000000000CD
:1003300000000000008080C0C0E0E0F0F0F0F0F0CD
:10034000F0F0F0F0E0E0C0C080800000007C7FFFB3
:10035000FFFFFFFF7F7F3F3F3F3F1F1F1F1FFFFF2D
:10036000FFFFFFFFFFFFFFFFFFFFFFFFFFFFFFFF9D
:10037000FFFFFFFFFEFEFEFEFEFEFEFEFEFEFEFE99
:10038000FEFEFEFEFEFEFEFEFEFEFEFEFEFEFEFE8D
:10039000FEFEFEFEFEFEFEFEFEFEFEFEFEFEFEFE7D
:1003A000FEFEFEFEFEFEFEFEFEFEFEFEFEFEFEFE6D
:1003B000FFFFFFFFFFFFFFFFFFFFFFFFFFFFFFFF4D
:1003C000FFFFFFFFFFFFFFFFFFFFFFFEF800000042
:1003D000000000000000000000000080808080E03D
:1003E000FFFFFFFFFFFFFFFFFFFFFFFFFFFFFFFF1D
:1003F000FFFFFFFFFFFFFFFFFFFFFFFFFFFFFFFF0D
:10040000FFFFFFFFFFFFFFFFFFFFFFFFFFFFFFFFFC
:10041000FFFFFFFFFFFFFFFFFFFFFFFFFFFFFFFFEC
:10042000FFFFFFFFFFFFFFFFFFFFFFFFFFFFFFFFDC
:10043000FFFFFFFFFFFFFFFFFFFFFFFFFFFFFFFFCC
:10044000FFFFFFFFFFFFFFFFFFFFFFFFFF000000B9
:1004500000FCFCFCFCFEFEFEFEFFFFFFFFFFFFFFBB
:10046000FFFFFFFFFFFFFFFFFFFF7F7F1F1F0F0F3C
:100470000F0F070707070303030303030303030324
:10048000030303030303030303030303030303033C
:10049000030303030303030303030303030303032C
:1004A000030303030303030303030303030303031C
:1004B00003070707070F0F1F1F3F3F7F7F7F7F7FC8
:1004C0007F7F7F7F7F7F3F1F1F0F0703000000009C
:1004D000000101030307070F0F0F0F0F0F0F0F0F7F
:1004E0000F0F0707030301010000000000000000D8
:1004F00000000000000000000000000000000000FC
:1005000000000000000000000000000000000000EB
:1005100000000000000000000000000000000000DB
:1005200000000000000000000000000000000000CB
:1005300000000000000000000000000000000000BB
:100540000000000000000000000000000080240007
:1005500000008000200008000400020002000200E9
:10056000020002000400080010002000400080008B
:10057000000000000000000000000000000000007B
:10058000000000000000000000000000000000006B
:10059000000000000000000000000000000000005B
:1005A000000000000000000000000000000000004B
:1005B000000000000000000000008000400020005B
:1005C000A000A0002000400080000000000000000B
:1005D00038027000700038001C001C000E000E0075
:1005E0001C00104000000000000000000000E0209F
:1005F000212002E022202400E4202420C400E42062
:100600002420C400C4202420C400E4408440E4002A
:1006100004000400E420242004E02420C40024E09A
:1006200024002420E4202400C4202420C400E4204A
:100630002420C4000200020051001C000E0007002C
:100640000300030007000E001C00510004500000CE
:10065000000000000000000000000000000000009A
:1006600000004015000000000000000000000F091D
:100670000908000F89098800CF01C101C000CF011E
:10068000C101CE00C708C808C700CF00C000CF0016
:10069000C000C000CF09C908C00FC808C700C80FF4
:1006A000C800C000CF00C000C708C808C700CF01FD
:1006B000C101CE00800080001540008000000000D5
:1006C000000000000000008000401500C015000080
:1006D00000000000E800C8008400040002000100DF
:1006E000010000008000C000E000700038000E0033
:1006F00007000700030003000100010001000100E2
:1007000001000100010001000100010001000100E1
:1007100001000100010001000100010001000100D1
:1007200001000100010001000100010001000100C1
:10073000010001000300030007000E001C01380245
:100740003802380238011C000E00070001000000CA
:100750000000000000000100030007000700070080
:100760000700070003000100000000000000000077
:100770000000000000000000000000000000000079
:100780000000000000000000000000000000000069
:100790000000000000000000000000000000000059
:1007A0000000000000000000000000000000000049
:1007B0000000000000000000000000000000000039
:1007C0000000000000000000000000000000007FAA
:1007D0007F7F7F7F7C7C7C7F7F7F7F7F7F7F7F7F32
:1007E000001208003E223E00281028002E2A3E005B
:1007F0003E0A020000003E223E00281028003E0A69
:100800003E003E2A140000003E223E002810280030
:100810000E083E003E2A3A0000003E223E0028100C
:1008200028002E2A3A00222A3E0000003E223E00E6
:10083000281028003E2A3A003E22220000003E22D4
:100840003E00281028003E2A22002E2A3E000002E8
:1008500008D4D205087F7F3E1C084120FE0105F127
:10086000F1F111D1B1D111F15151515151515151B8
:100870005151515151510000FF00007F7F09090F74
:1008800006007F7F19396F46007F7F49494141004B
:10089000266F49497B3200266F49497B32FF0000B1
:1008A000FFFFFFFEFFFEFF0279CD95A5CD79011177
:1008B000111101F9F901010000FF00007F7F090912
:1008C0000F06007F7F40404040007C7E0B0B7E7C0B
:1008D00000070F78780F0700000000000000FF00FD
:1008E000001F3F3F33333333333E36363E363E36DA
:1008F0003E36363E36363E360000FF00003E7F4133
:10090000417F3E007F7F0E1C7F7F000000000000C3
:100910000000000000000000000000000000003F98
:100920004050404040784641415959414141415928
:1009300059414141414141414100007F00000101D5
:100940007F7F0101007C7E0B0B7E7C007F7F09098D
:100950000F06007F7F494941410000000000000070
:10096000080B00020202000009040000010202005C
:1009700000052400100105240101010424020605DC
:10098000240600010705810310004009040100024C
:100990000A0000000705020240000007058302402C
:1009A00000000403090412010002EF020140412388
:1009B000368000010102030141726475696E6F2087
:1009C0004C4C430041424C31313036009C0E1124D6
:1009D0001FBECFEFDAE0DEBFCDBF11E0A0E0B1E097
:1009E000EEE8FEE202C005900D92A634B107D9F7F9
:1009F00026E0A6E4B1E001C01D92AE30B207E1F7F7
:100A000014E0C7EED4E004C02197FE010E946714F1
:100A1000C63ED107C9F70E94CD0E0C9445170C9421
:100A2000000080E0E9EAF1E081118FEF002481937A
:100A30008193819381930394D1F70895E9EAF1E0DA
:100A400080E0A0E0B8E000800EBC8111012C11977D
:100A5000A0FDFDCF0192B9F70DB40895909109065C
:100A6000982329F490910806982381E009F480E006
:100A700008956F927F928F929F92AF92BF92CF9282
:100A8000DF92EF92FF920F931F93CF93DF936C014E
:100A9000CB013A017E2DFA01649131965491F2E036
:100AA0006F0E711CC62FD0E0222301F1E1E0F0E0CF
:100AB000352F377011F4F0E0E0E0A52FA695A6954C
:100AC000A695AE0FBF2FB11DAC9FF001AD9FF00DED
:100AD000BC9FF00D1124733011F4EE0FFF1F2E9FF9
:100AE000D0012F9FB00D11246A0E7B1ED601AC0FD2
:100AF000BD1F1A161B060CF06CC020E8C216D104EC
:100B00000CF067C09C01250F311D121613060CF066
:100B100060C0803491050CF05CC06114710409F46C
:100B200058C0382F3770FC0197FD379623E0F595B4
:100B3000E7952A95E1F72E2F97FF04C0332311F094
:100B40002FEF2E0FEE27FF27EC19FD09D7FC02C06F
:100B5000F0E0E0E090E89C19A038B1050CF4962F85
:100B60009E1BA22F022E000CBB0B4A2F40952F3F3D
:100B70000CF040E0BB24B394852F877009F4B12CAE
:100B8000569556955695B50EAB0DB11D19971CF09F
:100B900058E0B52EB21AB41A240F50E82503D0013C
:100BA0001124AC0DBD1DAE0FBF1F649FE00DF11DE4
:100BB00011246E0E7F1EC32E032E000CDD08733031
:100BC00009F417C1A8F4713009F4CAC0723009F4ED
:100BD00078C0DF91CF911F910F91FF90EF90DF9040
:100BE000CF90BF90AF909F908F907F906F9008951F
:100BF0007A3FB1F10B2D020F7B3F59F7201749F3D4
:100C0000BD0167557E4FF12CE12CE91608F0A2C01A
:100C1000F301EE0DFF1DE491F0E0AF010C2C02C0DA
:100C2000440F551F0A94E2F727FD06C0FB0180819F
:100C3000142F109581238083332361F0273054F4DF
:100C40005B01F0E8AF0EB11C452F4095F5018081A6
:100C500084238083FFEFEF1AFF0A6F5F7F4FD5CFAA
:100C60000B2D020F201709F4B4CFBD0167557E4F3D
:100C7000F12CE12CE91608F067C0F301EE0DFF1D21
:100C8000E491F0E0AF010C2C02C0440F551F0A9410
:100C9000E2F727FD04C0FB018081842B808333238E
:100CA00051F0273044F45B01F0E8AF0EB11CF501C0
:100CB0008081852B8083FFEFEF1AFF0A6F5F7F4FE4
:100CC000D9CF6FEF70E0032E02C0660F771F0A9432
:100CD000E2F760957095972E8B2C820E281509F4FB
:100CE00078CF8D0107551E4FF12CE12CE91630F518
:100CF000F301EE0DFF1DE491F0E0AF010C2C02C0FA
:100D0000440F551F0A94E2F727FD05C0F8018081C2
:100D10008623842B8083332359F027304CF45801E9
:100D2000F0E8AF0EB11CF50180818921852B80830D
:100D3000FFEFEF1AFF0A0F5F1F4FD8CF2F5F6C0E28
:100D40007D1EA058BF4FCACF2F5F6C0E7D1EA058CE
:100D5000BF4F88CF2F5F6C0E7D1EA058BF4F4ECF68
:100D60000E0F1F1F8B2D820F281709F432CFBD01E4
:100D700067557E4FF12CE12CE91698F5F801EE0D40
:100D8000FF1DA490B12C0C2C02C0AA0CBB1C0A9411
:100D9000E2F7A094B094F301EE0DFF1D8490912C26
:100DA0000C2C02C0880C991C0A94E2F727FD08C09D
:100DB000FB014081E42FEA214E2F4829FB014083AB
:100DC000332349F027303CF4FB01E058FF4FA0806B
:100DD000BA20B928B082FFEFEF1AFF0A6F5F7F4F8A
:100DE000CBCF2F5F6C0E7D1E0C0F1D1FA058BF4F69
:100DF000BBCFE92EF12CE60DF71DA755BE4F60E8DD
:100E000070E06E197F09CE19DF09AE01440F551F3E
:100E1000C1E0D0E07E01032E01C0EE0C0A94EAF797
:100E2000192F0B2D892E932ECF93DF93ED01EF9683
:100E3000EF962296A590C590992059F0AE9C50014E
:100E4000CE9C600127302CF4F880D094FD20FB2844
:100E5000F99222233AF0FC90C094FC20FA28FD92EB
:100E60000C94330711961A9529F70A9551F0182D0D
:100E700023951124E40FF11DA60FB11DC60FD11D3E
:100E8000D9CFDF91CF911124A4CEE1E0F0E00E9410
:100E90005A07319728F068517C4F8F4F9F4FF9CFF9
:100EA000AB01FC010E945A07641775078E079F0764
:100EB000C8F30895AFE4B1E02FB7F8947D918D9118
:100EC0009C9166B52FBFA89B05C06F3F18F47F5F4C
:100ED0008F4F9F4F22E0660F771F881F991F2A951B
:100EE000D1F70895FC0180919801882311F13FB753
:100EF000F89482E08093E9002091F200822F90E044
:100F00001816190614F481E090E0882339F0289827
:100F100044E6409397014091F1004083222339F049
:100F20002091F200211103C02BE62093E8003FBF7F
:100F300008958FEF9FEF08952FB7F89483E0809383
:100F4000E9009091E800892F807295FF04C090918C
:100F5000F20080E4891B2FBF089580918F018111D9
:100F60000DC082E080938B0184E080938C0110920D
:100F70008E0110928D0181E080938F018BE891E0CA
:100F800008958F929F92AF92BF92CF92DF92EF928D
:100F9000FF920F931F93CF93DF936C017B018A0124
:100FA00080910D01882309F458C08091980188230D
:100FB00009F453C080918A0180FF05C08091E00050
:100FC00082608093E000E801B12C8AEFA82E93E0C4
:100FD000892E2AE3922E209711F4BB20B9F10E94AA
:100FE0009C07811106C0AA94AA20B9F10E94450766
:100FF000F2CF8C171D0611F00CF08C2F9FB7F894D0
:101000008092E9002091E80025FD02C09FBFE3CF58
:10101000282F30E0C21BD30BF701815020F0419103
:101020004093F100FACFE20EF31EBB2021F0909224
:10103000E800B12CEBCF8091E80085FDE7CF9092DE
:10104000E800BB24B394209709F3F3CF5D9884E6BE
:1010500080938901101611063CF081E090E0F601C2
:101060009383828310E000E0C801DF91CF911F914C
:101070000F91FF90EF90DF90CF90BF90AF909F9037
:101080008F900895CF93DF931F92CDB7DEB769831A
:10109000DC01ED91FC910280F381E02D41E050E014
:1010A000BE016F5F7F4F09950F90DF91CF9108953B
:1010B00083E08093E9008091F200882319F08AE3AD
:1010C0008093E80008950E949C0790E00895CF93D4
:1010D000DF931F92CDB7DEB7FC018485958597FD20
:1010E00008C02FEF3FEF358724870F90DF91CF9116
:1010F0000895CE0101960E947207019719F4898123
:1011000090E0F3CF8FEF9FEFF0CF0F931F93CF932C
:10111000DF931F92CDB7DEB78C01FC0184859585E6
:1011200097FF0BC0CE0101960E947207019771F4E0
:10113000898190E0F80195878487F80184859585F9
:101140000F90DF91CF911F910F9108958FEF9FEF37
:10115000F1CFFC018485958597FD0BC09FB7F8946E
:1011600082E08093E9008091F2009FBF90E00196B9
:1011700008959FB7F89482E08093E9008091F2008F
:101180009FBF90E008954091850150918601209184
:1011900083013091840142175307B4F49091E80021
:1011A0009570E1F39091E80092FD19C08093F100F1
:1011B000809185019091860101968F739927892BE3
:1011C00019F48EEF8093E80080918501909186015B
:1011D0000196909386018093850181E0089580E0D7
:1011E0000895DF92EF92FF920F931F93CF93DF93B7
:1011F000D82E8A01EB017B01E40EF51ECE15DF052A
:1012000059F0D7FE12C0FE0184910E94C3082196B6
:101210008111F4CF0FEF1FEFC801DF91CF911F9124
:101220000F91FF90EF90DF9008958881EECF0F939C
:101230001F93CF93DF931F92CDB7DEB782E08983F0
:1012400042E450E060E679E080E80E94F1080E9404
:10125000AD07DC0112960D911C910115110589F065
:10126000D801ED91FC910280F381E02DBE016F5F0A
:101270007F4FC801099597FD04C0F80100851185CD
:10128000ECCF89810F90DF91CF911F910F9108953D
:10129000615030F02091F100FC0120830196F8CFDD
:1012A000289884E6809397010895AF92BF92CF92D9
:1012B000DF92EF92FF920F931F93CF93DF936C0116
:1012C0007B018B01040F151FEB015E01AE18BF08F7
:1012D000C017D10759F06991D601ED91FC910190A9
:1012E000F081E02DC6010995892B79F7C501DF91C1
:1012F000CF911F910F91FF90EF90DF90CF90BF9013
:10130000AF900895BC0190E080E0AB01FC010E9429
:101310005A0741505109E109F10928F068517C4F01
:101320008F4F9F4FF6CFAB01FC010E945A07641705
:1013300075078E079F07C8F308958FB18095807F4A
:10134000669B88601C9B8460089580389105B8F482
:1013500060347105A0F420E191E061FD94E060FD4E
:10136000990F62FD9295687F269FD0011124A80FE6
:10137000A755BE4F8C9140FF03C0892B8C930895D5
:1013800090958923FBCF4F925F926F927F928F92BD
:101390009F92AF92BF92CF92DF92EF92FF920F9304
:1013A0001F93CF93DF93EC014B01881A990A97FEA4
:1013B00003C091948194910885E088169104D4F13A
:1013C0006C177D07F4F52E01EB0161E470E005E494
:1013D00010E032016C1A7D0A6B01C01AD10AD7FEE7
:1013E00003C0D194C194D108730177FE03C08FEF7D
:1013F000E81AF80AF594E7948FEF061717070CF42C
:1014000081E0A82E880FBB084C165D061CF141E058
:1014100085E088169104DCF0BE01C8010E94A50990
:10142000EC18FD08F7FE04C00A0D1B1DE60CF71CA6
:101430002196EACF8E0195E4492E512CC1E4D0E0EB
:10144000C8CF2B0165E470E001E410E0C2CFB80121
:10145000CE01E4CFDF91CF911F910F91FF90EF90DC
:10146000DF90CF90BF90AF909F908F907F906F90C4
:101470005F904F9008950895EF920F931F93CF932D
:10148000DF93EC019E816A3069F48D818C836985DC
:10149000960F9E8381E090E0DF91CF911F910F9195
:1014A000EF900895262F1616B4F461E0690F062E0A
:1014B000000C770B8C81082E000C990B3F814AEFB2
:1014C000E42E313011F03BEFE32E10E000E04EEA65
:1014D00050E00E94390598859C5F8C81890F8C8330
:1014E000D9CF0F931F93CF93DF938C01D0E0C0E04F
:1014F000F801EC0FFD1F6491662341F089EF95E040
:101500000E943C0A892B11F02196F2CFCE01DF9187
:10151000CF911F910F910895089590E080E0089574
:101520008F929F92AF92BF920F931F93CF93DF93AF
:10153000CDB7DEB7A1970FB6F894DEBF0FBECDBF13
:1015400019A2423008F44AE08E010F5D1F4F842E2D
:10155000912CB12CA12CA50194010E940E14E62F10
:10156000B901CA01EA3044F5E05DD801EE938D017E
:10157000232B242B252B79F790E080E0109769F03E
:10158000FD0101900020E9F73197AF014A1B5B0B89
:10159000BD0189EF95E00E945509A1960FB6F89418
:1015A000DEBF0FBECDBFDF91CF911F910F91BF90D6
:1015B000AF909F908F900895E95CD7CFCF93C82FBD
:1015C000CB010E94B413E9EFF5E09BE4958394838B
:1015D000C683682FCF01CF910C943C0A1F93CF9301
:1015E000DF93182FCB010E94B413C82F30E384FD82
:1015F00031E320E3C5FD21E390E3C6FD91E380E301
:10160000C7FD81E31F923F931F922F931F929F93D9
:101610001F928F938DE391E09F938F9381EA91E0E6
:101620009F938F930E946D148DB79EB70C960FB643
:10163000F8949EBF0FBE8DBF30E3C0FD31E320E3C1
:10164000C1FD21E390E3C2FD91E380E3C3FD81E3AB
:101650001F923F931F922F931F929F931F928F93DE
:101660008DE391E09F938F93C9E9D1E0DF93CF930E
:101670000E946D1484E58093FE058093FD05109310
:10168000FF0541EA51E0FA0101900020E9F7AF01BE
:10169000425A514061EA71E089EF95E00E94550994
:1016A0008CE68093FE058093FD051093FF0509905D
:1016B0000020E9F7AE014A5951408DB79EB70C960C
:1016C0000FB6F8949EBF0FBE8DBF69E971E089EF38
:1016D00095E0DF91CF911F910C945509CF93C82FBE
:1016E000803120F48CEA90E00E94710A6C2F70E047
:1016F00090E080E040E1CF910C94900A1F920F920D
:101700000FB60F9211248F939F938091E1009091D7
:10171000E100937F9093E10083FF0FC01092E900F6
:1017200091E09093EB001092EC0092E39093ED0027
:101730001092980198E09093F00082FF22C093E00D
:101740009093E9009091F200992319F09AE3909315
:10175000E80090918901992341F09091890191507D
:1017600090938901911101C05D9A909197019923FD
:1017700041F090919701915090939701911101C080
:10178000289A84FF18C08091E2008E7E8160809349
:10179000E2008091E1008F7E8093E10080918A01D8
:1017A0008E7E806180938A019F918F910F900FBEF2
:1017B0000F901F90189580FFF7CF8091E2008E7EEA
:1017C00080618093E2008091E1008E7E8093E10051
:1017D00080918A018E7E8160E5CF1F920F920FB6B5
:1017E0000F921124CF92DF92EF92FF920F931F93EB
:1017F0002F933F934F935F936F937F938F939F9319
:10180000AF93BF93EF93FF93CF93DF93CDB7DEB743
:101810006C97DEBFCDBF1092E9008091E80083FF96
:1018200025C068E0CE0145960E94480982EF80936A
:10183000E8008D8987FF39C09091E80090FFFCCFC8
:10184000982F907609F034C19E894F89588D2F8941
:10185000F88C911131C0803861F5809188018093B6
:10186000F1001092F1008EEF8093E8006C960FB6B5
:10187000F894DEBF0FBECDBFDF91CF91FF91EF9106
:10188000BF91AF919F918F917F916F915F914F9198
:101890003F912F911F910F91FF90EF90DF90CF908C
:1018A0000F900FBE0F901F9018959EEF9093E80039
:1018B000C7CF1092F100D5CF913059F48111D3CF19
:1018C0004130510581F6809188018D7F8093880198
:1018D000CACF933049F48111C6CF4130510519F672
:1018E000809188018260F2CF953041F48091E800C8
:1018F00080FFFCCF20682093E300B5CF963009F03D
:10190000A9C00B8D1C8D22E01092E9001092860177
:1019100010928501F2122EC0109284011092830160
:101920000E9417091F8299E09983FA8291E09E83B1
:1019300090EA98879AEF99872091850130918601E6
:10194000275F3F4F3C832B838D831092E9001092D9
:10195000860110928501109384010093830149E070
:1019600050E0BE016F5F7F4F80E00E94F1080E944F
:10197000170979CF10938401009383010E94AD076A
:10198000DC0112960D911C910115110509F451C14C
:10199000D801ED91FC910480F581E02DBE016B5ED4
:1019A0007F4FC8010995009709F03EC1F8010085F5
:1019B0001185EACFF3E0FF120EC08F89882309F466
:1019C00040C0823061F440E867E084EC99E00E9416
:1019D000690E811148CF81E28093EB0047CF8130BF
:1019E00029F440E86BE088EB99E0F1CF833099F778
:1019F0000E94AD07DC011296ED90FC908E010F5F06
:101A00001F4F6801E114F10479F0D701ED91FC91C9
:101A10000680F781E02DB801C7010995080F111D57
:101A2000F701E084F184EECFD8011C92F601019019
:101A30000020E9F73197BF016C197D0940E0C6012C
:101A4000C6CF62EA79E0FB01449150E080E80E9451
:101A5000F10809CF973009F4BECF983021F481E026
:101A60008093F10000CF993009F0FDCE837009F02A
:101A7000B2CFE3E1F1E081E031E096E3219122236E
:101A800071F08093E9003093EB00DF0111972C9106
:101A90002093EC009093ED008F5F873079F78EE70D
:101AA0008093EA001092EA008F8980939801DBCE40
:101AB0008B8D9C8D1092E900109286011092850109
:101AC0009093840180938301898D811192C08E89C6
:101AD0009D89913A49F4813209F07DCF47E050E089
:101AE00066E071E080E0B3CF913209F074CF8332C9
:101AF00069F48F89988DB0E0A0E080930201909303
:101B00000301A0930401B0930501ADCE803269F4C6
:101B10008091E80082FFFCCF67E086E091E00E94C0
:101B200048098BEF8093E8009ECE823209F09BCE6D
:101B30008F8980930D01EEEFFFE7859194918B3FA4
:101B40009C4D51F1E0E0F8E0809106019091070191
:101B5000A0910801B0910901803B9440A105B10515
:101B6000F1F480910D0180FD1AC0EE3F8AE0F80784
:101B700089F587E797E79183808380916000809360
:101B8000870188E19BE00FB6F894A89580936000E8
:101B90000FBE9093600067CEEEEFFAE0D5CF808164
:101BA00091818737974709F05ECEA89580916000B4
:101BB0008861809360008091870180936000EE3F90
:101BC0002AE0F20789F08091FE0A9091FF0A918342
:101BD000808349CE808191818737980751F2909315
:101BE000FF0A8093FE0AC5CF1092FF0A1092FE0AE8
:101BF0003ACE0E94AD07DC0112960D911C910115A1
:101C0000110509F4E8CED801ED91FC910190F08125
:101C1000E02DBE016B5E7F4FC8010995811123CE77
:101C2000F80100851185EBCF181619060CF41BCEB0
:101C3000D2CEF1E0FF12BECE66EA79E004CF0F9279
:101C40000FB68F939F93EF93FF9380914E018D5F1B
:101C50008D3708F08D5780934E01E3E5F1E08081E8
:101C60008E4F808391819F4F918382818F4F82839A
:101C700083818F4F8383EFE4F1E080818F5F8083E6
:101C800081818F4F818382818F4F828383818F4FA8
:101C900083838FB18F6066991C9B88278F3681F470
:101CA00080914D01981B963068F0E0E0F8E087E7FE
:101CB0008083818388E180936000F0936000FFCF90
:101CC00090934D01FF91EF919F918F910FBE0F90D7
:101CD0001895EF92FF920F931F93CF93DF93F82EF7
:101CE000192FE62E042F81E0860F880F0E94C3086B
:101CF00083E00E94C308CF2DD12FEC0EFD2EF11CE6
:101D0000CE15DF05B9F007FF13C0FE0184910E94D4
:101D1000C308182F80E00E94C308812321968111F7
:101D2000EFCFDF91CF911F910F91FF90EF9008952A
:101D30008881EDCF81E0F5CFE9EAF5E013821282E8
:101D400088EE93E0A0E0B0E084839583A683B78318
:101D50008DE191E0918380838FEF9FEF958784875A
:101D6000E3E0F6E08BE391E09183808315821682B5
:101D700080E18783148213821186E9EFF5E01382F4
:101D800012828FE291E091838083118681E08087C7
:101D900015821682148287830895789483E084BD27
:101DA00083E085BD81E080936E00E1E8F0E083E0B0
:101DB0008083E0E881E08083E1E983E08083E0E9FB
:101DC00081E08083E1EC87E08083E3EC81E0808345
:101DD000E0EC82E08083E2EC81E08083EAE787E068
:101DE00080838068808310929801109288011092FD
:101DF0008A018091D70081608093D70080EA809328
:101E0000D80089B5806189BD89B5826089BD09B472
:101E100000FEFDCF0E9445078091D8008F7C806135
:101E20008093D8008091E000807F8093E0008091D3
:101E3000E1008E7E8093E1008DE08093E200559A70
:101E4000209A81EC80937C0085B1806F85B984B144
:101E5000877E84B984B1876E84B95E9A5F988AB1AF
:101E6000806D8AB9769A6E9881B3806F81BB8998AC
:101E700080B38D7080BB80E58CBD81E08DBD85E039
:101E800090E00E9482095F9A85E090E00E948209BA
:101E90005E985C98E0EBF2E08DEB92E024912EBD31
:101EA00000000DB407FEFDCF31968E179F07B1F7E6
:101EB0005C9A81E8809364008091650081608093E2
:101EC00065000E941E050E949D0987FF10C05C9856
:101ED00085EA8EBD00000DB407FEFDCF5C9A2E98FA
:101EE0002F982D9881E083BF889513BEFCCF0E9468
:101EF0009D0982FF46C02D980E949D0984788438F0
:101F0000D9F42D9A88EC90E00E9482092F9882E003
:101F100090E00E94B4138F3F29F06FEF82E090E0D1
:101F20000E94CE1384EF91E00E9482092F9A0E94B2
:101F30009D0984788438D9F30E949D098471843185
:101F4000D9F42D9A88EC90E00E9482092E9882E0C4
:101F500090E00E94B413882329F060E082E090E0D2
:101F60000E94CE1384EF91E00E9482092E9A0E9473
:101F70009D0984718431D9F388EC90E00E94820934
:101F8000B6CF2D9A0E94110582E480930A06CAE515
:101F9000D1E012E0E8E74E2E512C612C712CF6E0D6
:101FA0008F2E912CA12CB12CA3E0CA2ED12CE12C88
:101FB000F12C18830E945C13A30192010E94DC1390
:101FC000605871098109910969830E945C13A50118
:101FD00094010E94DC136A830E945C13A70196019E
:101FE0000E94DC136F5F7F4F8F4F9F4F6B83165F95
:101FF00024961636F1F663E0462E512C612C712C96
:1020000075E0272E312C5DE0952E8FB7F894409126
:1020100053015091540160915501709156018FBF49
:1020200080910B06242F281B822F90910C06992358
:1020300059F020930D0610920C0680E090E0892B59
:1020400021F30E940000DFCF90910A06291740F487
:102050008F5F891790F781E083BF889513BEEDCF1E
:1020600081E080930C0640930B06809106069091C8
:10207000070601969093070680930606809108064E
:10208000809309060E949D09809308060E9411050D
:1020900080918201813009F45AC048F0E9E2F2E00F
:1020A00091E8823009F4AEC00E941E05C6CF88E0D8
:1020B0000E942E05811105C084E00E942E05882310
:1020C00019F081E08093820142E0E42E10E000E00C
:1020D00020E04AE558E061E170E080E290E00E9493
:1020E000390580910606909107068F7099278830F0
:1020F000910540F5C1E1049708F0CEE132E0E32E0E
:1021000010E000E020E043E558E069E170E08BE595
:1021100090E00E9439056C2F70E041E084E390E08C
:102120000E94A509C0FDC0CF22E0E22E10E000E031
:1021300020E04FE458E06CE170E08DE290E00E9416
:102140003905B2CFCFE10C9730F3C0E2E4CF88E09D
:102150000E942E05811105C084E00E942E0588236F
:1021600019F082E080938201CAE5D1E0F9806F2DF9
:102170000F2C000C770B8881EE24E3940FEC17E012
:102180002A8141EE57E090E00E9439058B818F0D46
:10219000898381340CF10E945C132CE530E040E02F
:1021A00050E00E94DC13645671098109910969832A
:1021B0000E945C1326E030E040E050E00E94DC1317
:1021C0006A830E945C13A30192010E94DC136F5F7B
:1021D0007F4F8F4F9F4F6B83249641E0C238D407C7
:1021E00029F6EE24E3940DEC12E020E04DE455E0F6
:1021F0006FE070E090E080E0A2CF8191DF01119765
:1022000084608C939150C9F7E9EAF3E092E491502D
:1022100059F4E9E2F4E092E4915061F08191DF0138
:10222000119780628C93F8CF8191DF0111978160C3
:102230008C93EDCF60E170E080E290E00E94C309F2
:102240006DE370E08DE290E00E94C30982E080932C
:10225000FE058093FD051092FF0583EC92E00E943D
:10226000710AC0900001D09001010D2C000CEE0805
:10227000FF084AE0C701B601F7FE0DC06DE289EF25
:1022800095E00E943C0A66277727CB016C197D09EF
:102290008E099F094AE00E94900A00910001109166
:1022A00001010C501109B12CA12CC0910001D09159
:1022B0000101CE010C96801791070CF478C0C8017B
:1022C0009C5F17FD06C0011584E01807CCF0C8011B
:1022D00094500E94B413882EC501B1010E9453147A
:1022E000EC016230710571F16CF477FF1CC0882D30
:1022F0000E946E0B0F5F1F4F2FEFA21AB20AD5CFAD
:10230000C801E7CF6530710594F7899DC02D112470
:10231000CE5FC093FE05C093FD056D5F7F4F660FD6
:10232000660F660F0CC0899DC02D1124CE5FC0932F
:10233000FE05C093FD05660F660F660F625F609332
:10234000FF05D5CF029779F580915901882321F0B7
:10235000809158018823D9F09AE1E92EF12C83E28B
:10236000C82ED12C41E0B601C7010E94A5092FEF6C
:10237000C21AD20A4BE2C416D104A1F78FEFE81AB1
:10238000F80A97E2E916F10451F7109200069C9EB4
:10239000C02D1124CE5FC093FE05C093FD0583E2DE
:1023A0008093FF05A4CF21E020930006F0CF229771
:1023B000BE018FE00E94DE0ABE018FE00E94EE0A9D
:1023C000C0910001D09101012197BE0189E10E94D5
:1023D000DE0ABE0189E10E94EE0ACAE4D0E003E20F
:1023E00010E041E0B801CE010E94A5090F5F1F4F28
:1023F0000B321105B1F72196C035D10581F7C3E540
:10240000D0E003E210E041E0B801CE010E94A5094E
:102410000F5F1F4F0B321105B1F72196C836D1055A
:1024200081F7CBE6D0E003E210E041E0B801CE0155
:102430000E94A5090F5F1F4F0B321105B1F72196BE
:10244000C038D10581F710920006C0910001D091EB
:102450000101BE0183E20E94DE0ABE0183E20E9406
:10246000EE0A81E080930006C0910001D091010145
:102470002196BE018DE20E94DE0ABE018DE20E941D
:10248000EE0AC0910001D09101012296BE0187E3BE
:102490000E94DE0ABE0187E30E94EE0A8091590184
:1024A0008823A9F0813009F483C0809106069091B9
:1024B000070664E170E00E943F14892B09F0F4CD17
:1024C0008091580191E0892780935801EDCD80E2F9
:1024D0000E942E05882359F08091000190910101FE
:1024E000019797FD4FC0909301018093000180E414
:1024F0000E942E05882371F08091000190910101C6
:102500000196811524E092070CF03FC090930101E1
:102510008093000180E80E942E05882369F0809155
:102520000001909101019C012550310937FD32C015
:10253000309301012093000180E10E942E05882341
:1025400079F080910001909101019C012B5F3F4F38
:10255000211544E034072CF530930101209300014C
:1025600088E00E942E05882309F49FCF81E08093A4
:10257000590180910001909101010E94B413809350
:10258000570193CF8FEF93E0AECF109201011092DD
:102590000001C0CF85509C4F9093010180930001B2
:1025A000CBCF8B5F93409093010180930001D8CFF4
:1025B0008DE58093FE058093FD051092FF058DEB60
:1025C00092E00E94710A809157010E946E0B0E9456
:1025D0009D0987FF0CC0C0910001D0910101CE017F
:1025E0000E94B41361E0680FCE010E94BC130E94E8
:1025F0009D0984FF0CC0C0910001D0910101CE0162
:102600000E94B4136FEF680FCE010E94BC1388E0E4
:102610000E942E05882309F448CF1092590145CF16
:102620008F929F92AF92BF92CF92DF92EF92FF92E2
:10263000CF93DF93EC01688179818A819B81611559
:1026400071058105910521F464E279ED8BE597E050
:102650002DE133EF41E050E00E94DC1349015A01C3
:102660009B01AC01A7EAB1E40E94FB136B017C0162
:10267000ACEEB4EFA50194010E940914C60ED71E5A
:10268000E81EF91EF7FE06C081E0C81AD108E1086D
:1026900080E8F80AC882D982EA82FB82C701B601C3
:1026A0009F77DF91CF91FF90EF90DF90CF90BF9019
:1026B000AF909F908F9008958F929F92AF92BF920C
:1026C000CF92DF92EF92FF9260910E0170910F0115
:1026D000809110019091110161157105810591059D
:1026E00021F464E279ED8BE597E02DE133EF41E0F1
:1026F00050E00E94DC1349015A019B01AC01A7EA9A
:10270000B1E40E94FB136B017C01ACEEB4EFA501B8
:1027100094010E940914C60ED71EE81EF91EF7FE8A
:1027200006C081E0C81AD108E10880E8F80AC09222
:102730000E01D0920F01E0921001F0921101C70139
:10274000B6019F77FF90EF90DF90CF90BF90AF9052
:102750009F908F90089560930E0170930F01809366
:102760001001909311010895F999FECF92BD81BD9A
:10277000F89A992780B50895262FF999FECF92BD32
:1027800081BDF89A019700B4021639F01FBA20BD36
:102790000FB6F894FA9AF99A0FBE0895262FF99970
:1027A000FECF1FBA92BD81BD20BD0FB6F894FA9A34
:1027B000F99A0FBE01960895052E97FB1EF400941A
:1027C0000E94F31357FD07D00E940E1407FC03D09C
:1027D0004EF40C94F31350954095309521953F4F4E
:1027E0004F4F5F4F089590958095709561957F4FFD
:1027F0008F4F9F4F08950E943014A59F900DB49F56
:10280000900DA49F800D911D11240895B7FF0C9485
:10281000FB130E94FB13821B930B0895A1E21A2E57
:10282000AA1BBB1BFD010DC0AA1FBB1FEE1FFF1F74
:10283000A217B307E407F50720F0A21BB30BE40BC4
:10284000F50B661F771F881F991F1A9469F760950B
:102850007095809590959B01AC01BD01CF010895C5
:10286000A29FB001B39FC001A39F700D811D1124D1
:10287000911DB29F700D811D1124911D0895AA1BF9
:10288000BB1B51E107C0AA1FBB1FA617B70710F05B
:10289000A61BB70B881F991F5A95A9F7809590958D
:1028A000BC01CD01089597FB072E16F4009407D0C4
:1028B00077FD09D00E943F1407FC05D03EF49095A7
:1028C00081959F4F0895709561957F4F0895EE0F04
:1028D000FF1F0590F491E02D0994AEE0B0E0E3E72E
:1028E000F4E10C941C170D891E8986E08C831A83F1
:1028F00009838FEF9FE79E838D83AE01475E5F4F15
:102900006F89788DCE0101960E9490142F813885B1
:10291000020F131FF80110822E96E4E00C94381772
:10292000ABE0B0E0E6E9F4E10C940E177C013B016A
:102930008A01FC0117821682838181FFC8C1CE0102
:1029400001965C01F7019381F30193FD859193FF5B
:1029500081913F01882309F453C1853239F493FDF5
:10296000859193FF81913F01853229F4B70190E071
:102970000E948016E7CF912C212C312CFFE1F3151A
:1029800038F08B3211F190F4803209F1833229F161
:1029900037FC3CC020ED280F2A3050F536FE20C011
:1029A0008AE0989E200D1124922E06C08D3291F05F
:1029B000803371F7689430F8F30193FD859193FFAC
:1029C00081913F018111DACF21C0689431F8689478
:1029D00032F8F2CF689433F8EFCF689434F8ECCF44
:1029E000EAE02E9E200D1124222E689435F8E4CFC3
:1029F0008E3229F436FC04C1689436F8DDCF8C366B
:102A000019F4689437F8D8CF8836B1F2982F9F7DA3
:102A100095549330E0F08336A1F18337C1F18335CB
:102A200009F063C02801F2E04F0E511CF801C0808C
:102A3000D180692D70E036FC02C06FEF7FEFC601D8
:102A40000E946A164C01689437F882010AC00C5F34
:102A50001F4FFFE3F98388248394912C6501E89448
:102A600037F833FE2DC0522C8114910471F5552096
:102A700009F468CFB70180E290E00E9480165A9472
:102A8000F6CFF801808189830E5F1F4FE4CF2801C4
:102A9000F2E04F0E511CF801C080D180692D70E02A
:102AA00036FC02C06FEF7FEFC6010E9475164C0125
:102AB0008201D5CFB70180E290E00E9480162A946F
:102AC0002814190409F0B0F7CECFF60137FC859130
:102AD00037FE81916F01B70190E00E94801651107E
:102AE0005A94F1E08F1A9108BFCF843619F08936D5
:102AF00009F077C0F80137FE6BC060817181828177
:102B000093810C5F1F4FF32DFF763F2E97FF09C077
:102B100090958095709561957F4F8F4F9F4F6894EA
:102B200037F82AE030E0A5010E94B016C82ECA1876
:102B30008C2C432C36FE0CC0E89440F8C91440F4A9
:102B400034FE05C032FC03C0F32DFE7E4F2E892CCF
:102B500044FE95C0FE01EC0DF11D8081803309F02B
:102B600087C0242D297E422E842D8870582E43FC48
:102B700095C040FE8FC09C2C821418F42C0C922C13
:102B8000981844FE91C0B70180E390E00E9480163F
:102B900042FE09C088E790E041FE02C088E590E06F
:102BA000B7010E948016C91408F48AC0CA94D12CB7
:102BB0009FEFC91AD90ACA0CDB1CF60182916F017A
:102BC000B70190E00E948016AC14BD04B1F74FCF5E
:102BD00060817181072E000C880B990B0E5F1F4FCF
:102BE00092CFD32CE894D4F82AE030E0853739F13D
:102BF000232D297FD22E8F3601F148F48835A9F094
:102C0000F701868197812B96E2E10C942A17803791
:102C100049F08837A9F7D4FE02C06894D2F820E1C1
:102C200030E00DC06894D4F8F6CF34FE03C0822F94
:102C30008660D82E20E132E002C028E030E0F801C2
:102C4000D7FE0FC060817181828193810C5F1F4F1D
:102C5000A5010E94B016C82ECA183D2CE89437F87A
:102C600067CF6081718190E080E00E5F1F4FF0CFF1
:102C700042FC02C0839478CF8394839475CF842DD3
:102C8000867809F471CFF6CFB70180E290E00E9418
:102C9000801683948214C0F3512C73CF522C581891
:102CA000821408F46ECFF8CF842D867809F47BCF98
:102CB0008BE241FE80E247FC8DE2B70190E071CFEC
:102CC000B70180E390E00E9480169A946CCF8FEF5A
:102CD0009FEF99CFFC010590615070400110D8F72B
:102CE000809590958E0F9F1F0895FC016150704054
:102CF00001900110D8F7809590958E0F9F1F089531
:102D00000F931F93CF93DF93182F092FEB018B8124
:102D100081FD09C01FEF0FEF812F902FDF91CF9121
:102D20001F910F91089582FF14C02E813F818C81E5
:102D30009D81281739073CF4E881F981CF0101967C
:102D40009983888310838E819F8101969F838E83D0
:102D5000E3CFE885F985812F0995892BA1F3DACF97
:102D6000FA01AA27283051F1203181F1E8946F93BC
:102D70006E7F6E5F7F4F8F4F9F4FAF4FB1E03ED062
:102D8000B4E03CD0670F781F891F9A1FA11D680F00
:102D9000791F8A1F911DA11D6A0F711D811D911D33
:102DA000A11D20D009F468943F912AE0269F1124A8
:102DB0003019305D3193DEF6CF010895462F47700C
:102DC000405D4193B3E00FD0C9F7F6CF462F4F7067
:102DD000405D4A3318F0495D31FD4052419302D0C5
:102DE000A9F7EACFB4E0A69597958795779567956B
:102DF000BA95C9F700976105710508959B01AC016B
:102E00000A2E06945795479537952795BA95C9F791
:102E1000620F731F841F951FA01D08952F923F926C
:102E20004F925F926F927F928F929F92AF92BF92DA
:102E3000CF92DF92EF92FF920F931F93CF93DF9386
:102E4000CDB7DEB7CA1BDB0B0FB6F894DEBF0FBEE3
:102E5000CDBF09942A88398848885F846E847D8430
:102E60008C849B84AA84B984C884DF80EE80FD8032
:102E70000C811B81AA81B981CE0FD11D0FB6F894A8
:0E2E8000DEBF0FBECDBFED010895F894FFCF69
:102E8E001000FFFFFFFF00E1000000000000010046
:102E9E00000000C18081000000000000004208C157
:102EAE000763085808A90867088508000000003C59
:102EBE000A55098D0A8C0A000000003B0A2563257D
:062ECE006325632563008B
:00000001FF
