:100000000C94EC040C9414050C9414050C94140535
:100010000C9414050C9414050C9414050C941405FC
:100020000C9414050C9414050C949C0B0C940B0C60
:100030000C9414050C9414050C9414050C941405DC
:100040000C9414050C9414050C9414050C941405CC
:100050000C9414050C9414050C9414050C943D0E8A
:100060000C9414050C9414050C9414050C941405AC
:100070000C9414050C9414050C9414050C9414059C
:100080000C9414050C9414050C9414050C9414058C
:100090000C9414050C9414050C9414050C9414057C
:1000A0000C9414050C9414050C94140530000408E9
:1000B0000000000000000000000000000000000040
:1000C0000000000000000000000000000000000030
:1000D0000000000000000000000000000000000020
:1000E0000000000000000000000000000000000010
:1000F0000000000000000000000000000000000000
:1001000000000000000000000000000000000000EF
:1001100000000000000000000000000000000000DF
:1001200000000000000000000000000000000000CF
:1001300000000000002F0000030003000A1F0A1F38
:10014000042A3F3A22180611162917280003000036
:10015000001E210000211E0005020500081C0800E9
:1001600000201000080808080020000020180601E0
:100170001E29251E223F2000322929261221251A58
:100180000C0A3F08172525191E25251801390503D6
:100190001A25251A0629291E001400002014000023
:1001A0000814220014141414221408000229050251
:1001B0001E212D2E3E09093E3F25251A1E21211202
:1001C0003F21211E3F2525213F0505011E21293AFA
:1001D0003F04043F213F21001021211F3F040A3129
:1001E0003F2020203F02023F3F02043F1E21211EEC
:1001F0003F0909061E21112E3F090936222525191E
:10020000013F01011F20201F0F10201F3F10103F32
:100210003B04043B03043807312D23213F21000018
:1002200001061820013F00000201020020202020CA
:1002300000010200102A2A3C3F2424181C22221408
:100240001824243F1C2A2A2C047E05014C52523EBD
:100250003F040438243D20004040443D3F08142220
:10026000213F20003E04043E3E04023C1C22221C8E
:100270007E22221C1C22227E3E040204242A2A12F0
:10028000021F22201E20201E0E10201E3E10103E97
:10029000360808364E50503E322A262208162100D3
:1002A000003F0000211608000201020100000000CA
:1002B000D5F08D14A1C881CFD9F1AF20004F72695C
:1002C0006720004C6F636174696F6E20000000C08E
:1002D000E0F0F8FCFCFEFEFFFFFFFFFFFFFFFFFF6B
:1002E000FFFEFEFEFCFCF8F8F0F0E0E0C0C080800D
:1002F00000000000000000000000000000000000FE
:1003000000000000000000000000000000000000ED
:1003100000000000000000000000000000000000DD
:1003200000000000000000000000000000000000CD
:1003300000000000008080C0C0E0E0F0F0F0F0F0CD
:10034000F0F0F0F0E0E0C0C080800000001C1F3F33
:100350003F3F3F3F1F1F0F0F0F0F070707070F3FBD
:10036000FFFFFFFFFFFFFFFFFFFFFFFFFFFFFFFF9D
:10037000FFFFFFFFFEFEFEFEFEFEFEFEFEFEFEFE99
:10038000FEFEFEFEFEFEFEFEFEFEFEFEFEFEFEFE8D
:10039000FEFEFEFEFEFEFEFEFEFEFEFEFEFEFEFE7D
:1003A000FEFEFEFEFEFEFEFEFEFEFEFEFEFEFEFE6D
:1003B000FFFFFFFFFFFFFFFFFFFFFFFFFFFFFFFF4D
:1003C000FFFFFFFFFFFFFFFFFFFFFFFEF800000042
:1003D000000000000000000000000080808080E03D
:1003E000FFFFFFFFFFFFFFFFFFFFFFFFFFFFFFFF1D
:1003F000FFFFFFFFFFFFFFFFFFFFFFFFFFFFFFFF0D
:10040000FFFFFFFFFFFFFFFFFFFFFFFFFFFFFFFFFC
:10041000FFFFFFFFFFFFFFFFFFFFFFFFFFFFFFFFEC
:10042000FFFFFFFFFFFFFFFFFFFFFFFFFFFFFFFFDC
:10043000FFFFFFFFFFFFFFFFFFFFFFFFFFFFFFFFCC
:10044000FFFFFFFFFFFFFFFFFFFFFFFF3F00000079
:10045000007C7CFCFCFEFEFEFEFFFFFFFFFFFFFFBB
:10046000FFFFFFFFFFFF7F7F3F3F1F1F07070303C4
:100470000303010101010000000000000000000072
:10048000000000000000000000000000000000006C
:10049000000000000000000000000000000000005C
:1004A000000000000000000000000000000000004C
:1004B0000001010101030307070F0F1F1F1F1F1F6B
:1004C0001F1F1F1F1F1F0F07070301000000000051
:1004D00000000000000101030303030303030303FF
:1004E0000303010100000000000000000000000004
:1004F00000000000000000000000000000000000FC
:1005000000000000000000000000000000000000EB
:1005100000000000000000000000000000000000DB
:1005200000000000000000000000000000000000CB
:1005300000000000000000000000000000000000BB
:100540000000000000000000000000000080220009
:1005500000008000200008000400020002000200E9
:10056000020002000400080010002000400080008B
:10057000000000000000000000000000000000007B
:10058000000000000000000000000000000000006B
:10059000000000000000000000000000000000005B
:1005A000000000000000000000000000000000004B
:1005B00000000000000000000000800040002080DB
:1005C000208020802000400080000000000000000B
:1005D00008021000100008000400040002000200DD
:1005E0000004104000000000000000000000E020B7
:1005F000212002E022202400E4202420C400E42062
:100600002420C400C4202420C400E4408440E4002A
:1006100004000400E420242004E02420C40024E09A
:1006200024002420E4202400C4202420C400E4204A
:100630002420C40002000200510400020001000056
:1006400000000000000100020004510004500000FE
:10065000000000000000000000000000000000009A
:1006600000004015000000000000000000000F091D
:100670000908000F890988004F01410140004F011E
:1006800041014E004708480847004F0040004F0016
:10069000400040004F094908400F48084700480FF4
:1006A000480040004F0040004708480847004F01FD
:1006B00041014E00800080001540008000000000D5
:1006C0000000000000000080004015004015000000
:1006D000000000002800480084000400020001001F
:1006E000010000008000400020001000080002000F
:1006F00001000100000000000000000000000000F8
:1007000000000000000000000000000000000000E9
:1007100000000000000000000000000000000000D9
:1007200000000000000000000000000000000000C9
:1007300000000000000000000100020004010802A7
:100740000802080208010400020001000000000085
:100750000000000000000000000001000100010096
:100760000100010000000000000000000000000087
:100770000000000000000000000000000000000079
:100780000000000000000000000000000000000069
:100790000000000000000000000000000000000059
:1007A0000000000000000000000000000000000049
:1007B0000000000000000000000000000000000039
:1007C0000000000000000000000000000000007FAA
:1007D0007F7F7F7F7C7C7C7F7F7F7F7F7F7F7F7F32
:1007E000001208003E223E00281028002E2A3E005B
:1007F0003E0A020000003E223E00281028003E0A69
:100800003E003E2A140000003E223E002810280030
:100810000E083E003E2A3A0000003E223E0028100C
:1008200028002E2A3A00222A3E0000003E223E00E6
:10083000281028003E2A3A003E22220000003E22D4
:100840003E00281028003E2A22002E2A3E000002E8
:1008500008D4D205087F7F3E1C084120FE0105F127
:10086000F1F111D1B1D111F15151515151515151B8
:100870005151515151510000FF00007F7F09090F74
:1008800006007F7F19396F46007F7F49494141004B
:10089000266F49497B3200266F49497B32FF0000B1
:1008A000FFFFFFFEFFFEFF0279CD95A5CD79011177
:1008B000111101F9F901010000FF00007F7F090912
:1008C0000F06007F7F40404040007C7E0B0B7E7C0B
:1008D00000070F78780F0700000000000000FF00FD
:1008E000001F3F3F33333333333E36363E363E36DA
:1008F0003E36363E36363E360000FF00003E7F4133
:10090000417F3E007F7F0E1C7F7F000000000000C3
:100910000000000000000000000000000000003F98
:100920004050404040784641415959414141415928
:1009300059414141414141414100007F00000101D5
:100940007F7F0101007C7E0B0B7E7C007F7F09098D
:100950000F06007F7F494941410000000000000070
:10096000080B00020202000009040000010202005C
:1009700000052400100105240101010424020605DC
:10098000240600010705810310004009040100024C
:100990000A0000000705020240000007058302402C
:1009A00000000403090412010002EF020140412388
:1009B000368000010102030141726475696E6F2087
:1009C0004C4C430041726475696E6F204C656F6ECC
:1009D0006172646F0000BA0E11241FBECFEFDAE01F
:1009E000DEBFCDBF11E0A0E0B1E0E8E5FFE202C06C
:1009F00005900D92A634B107D9F726E0A6E4B1E040
:100A000001C01D92A630B207E1F714E0CCEED4E0AD
:100A100004C02197FE010E94CC14CB3ED107C9F738
:100A20000E94EB0E0C94AA170C94000080E0E1EAFF
:100A3000F1E081118FEF0024819381938193819361
:100A40000394D1F70895E1EAF1E080E0A0E0B8E096
:100A500000800EBC8111012C1197A0FDFDCF0192E9
:100A6000B9F70DB4089590910106982329F4909157
:100A70000006982381E009F480E008956F927F9248
:100A80008F929F92AF92BF92CF92DF92EF92FF929E
:100A90000F931F93CF93DF936C01CB013A017E2D0F
:100AA000FA01649131965491F2E06F0E711CC62FD9
:100AB000D0E0222301F1E1E0F0E0352F377011F4AE
:100AC000F0E0E0E0A52FA695A695A695AE0FBF2F66
:100AD000B11DAC9FF001AD9FF00DBC9FF00D112436
:100AE000733011F4EE0FFF1F2E9FD0012F9FB00D1A
:100AF00011246A0E7B1ED601AC0FBD1F1A161B06F1
:100B00000CF06CC020E8C216D1040CF067C09C0148
:100B1000250F311D121613060CF060C080349105AC
:100B20000CF05CC06114710409F458C0382F3770A0
:100B3000FC0197FD379623E0F595E7952A95E1F7B7
:100B40002E2F97FF04C0332311F02FEF2E0FEE2727
:100B5000FF27EC19FD09D7FC02C0F0E0E0E090E8C7
:100B60009C19A038B1050CF4962F9E1BA22F022EC3
:100B7000000CBB0B4A2F40952F3F0CF040E0BB24EC
:100B8000B394852F877009F4B12C569556955695D8
:100B9000B50EAB0DB11D19971CF058E0B52EB21A69
:100BA000B41A240F50E82503D0011124AC0DBD1D4B
:100BB000AE0FBF1F649FE00DF11D11246E0E7F1E4E
:100BC000C32E032E000CDD08733009F417C1A8F4FE
:100BD000713009F4CAC0723009F478C0DF91CF9146
:100BE0001F910F91FF90EF90DF90CF90BF90AF904B
:100BF0009F908F907F906F9008957A3FB1F10B2D69
:100C0000020F7B3F59F7201749F3BD016F557E4F07
:100C1000F12CE12CE91608F0A2C0F301EE0DFF1D46
:100C2000E491F0E0AF010C2C02C0440F551F0A9470
:100C3000E2F727FD06C0FB018081142F1095812368
:100C40008083332361F0273054F45B01F0E8AF0E6A
:100C5000B11C452F4095F501808184238083FFEFEF
:100C6000EF1AFF0A6F5F7F4FD5CF0B2D020F2017B2
:100C700009F4B4CFBD016F557E4FF12CE12CE9167C
:100C800008F067C0F301EE0DFF1DE491F0E0AF0145
:100C90000C2C02C0440F551F0A94E2F727FD04C034
:100CA000FB018081842B8083332351F0273044F46F
:100CB0005B01F0E8AF0EB11CF5018081852B8083CC
:100CC000FFEFEF1AFF0A6F5F7F4FD9CF6FEF70E032
:100CD000032E02C0660F771F0A94E2F760957095A5
:100CE000972E8B2C820E281509F478CF8D010F5585
:100CF0001E4FF12CE12CE91630F5F301EE0DFF1D2E
:100D0000E491F0E0AF010C2C02C0440F551F0A948F
:100D1000E2F727FD05C0F80180818623842B8083BC
:100D2000332359F027304CF45801F0E8AF0EB11CD2
:100D3000F50180818921852B8083FFEFEF1AFF0A5F
:100D40000F5F1F4FD8CF2F5F6C0E7D1EA058BF4F77
:100D5000CACF2F5F6C0E7D1EA058BF4F88CF2F5F6C
:100D60006C0E7D1EA058BF4F4ECF0E0F1F1F8B2D38
:100D7000820F281709F432CFBD016F557E4FF12C39
:100D8000E12CE91698F5F801EE0DFF1DA490B12CA9
:100D90000C2C02C0AA0CBB1C0A94E2F7A094B094DD
:100DA000F301EE0DFF1D8490912C0C2C02C0880CD9
:100DB000991C0A94E2F727FD08C0FB014081E42F4B
:100DC000EA214E2F4829FB014083332349F0273085
:100DD0003CF4FB01E058FF4FA080BA20B928B08254
:100DE000FFEFEF1AFF0A6F5F7F4FCBCF2F5F6C0EC5
:100DF0007D1E0C0F1D1FA058BF4FBBCFE92EF12C3D
:100E0000E60DF71DAF55BE4F60E870E06E197F0923
:100E1000CE19DF09AE01440F551FC1E0D0E07E01BD
:100E2000032E01C0EE0C0A94EAF7192F0B2D892E20
:100E3000932ECF93DF93ED01EF96EF962296A59038
:100E4000C590992059F0AE9C5001CE9C600127308E
:100E50002CF4F880D094FD20FB28F99222233AF05C
:100E6000FC90C094FC20FA28FD920C94380711964F
:100E70001A9529F70A9551F0182D23951124E40F9E
:100E8000F11DA60FB11DC60FD11DD9CFDF91CF9196
:100E90001124A4CEFC0180919001882311F13FB769
:100EA000F89482E08093E9002091F200822F90E094
:100EB0001816190614F481E090E0882339F0289878
:100EC00044E640938F014091F1004083222339F0A2
:100ED0002091F200211103C02BE62093E8003FBFD0
:100EE00008958FEF9FEF08952FB7F89483E08093D4
:100EF000E9009091E800892F807295FF04C09091DD
:100F0000F20080E4891B2FBF089580918701811131
:100F10000DC082E08093830184E08093840110926D
:100F200086011092850181E08093870183E891E03A
:100F30000895CF93DF931F92CDB7DEB76983DC01AD
:100F4000ED91FC910280F381E02D41E050E0BE0183
:100F50006F5F7F4F09950F90DF91CF91089583E0E8
:100F60008093E9008091F200882319F08AE380934E
:100F7000E80008950E94740790E00895CF93DF93EE
:100F80001F92CDB7DEB7FC018485958597FD08C01B
:100F90002FEF3FEF358724870F90DF91CF91089592
:100FA000CE0101960E944A07019719F4898190E0C9
:100FB000F3CF8FEF9FEFF0CF0F931F93CF93DF937C
:100FC0001F92CDB7DEB78C01FC018485958597FF14
:100FD0000BC0CE0101960E944A07019771F48981E6
:100FE00090E0F80195878487F801848595850F90B6
:100FF000DF91CF911F910F9108958FEF9FEFF1CF68
:10100000FC018485958597FD0BC09FB7F89482E01D
:101010008093E9008091F2009FBF90E001960895CF
:101020009FB7F89482E08093E9008091F2009FBF1F
:1010300090E0089540917D0150917E0120917B01C7
:1010400030917C0142175307B4F49091E8009570F9
:10105000E1F39091E80092FD19C08093F100809136
:101060007D0190917E0101968F739927892B19F448
:101070008EEF8093E80080917D0190917E01019632
:1010800090937E0180937D0181E0089580E0089532
:10109000DF92EF92FF920F931F93CF93DF93D82E9F
:1010A0008A01EB017B01E40EF51ECE15DF0559F038
:1010B000D7FE12C0FE0184910E941A082196811168
:1010C000F4CF0FEF1FEFC801DF91CF911F910F9168
:1010D000FF90EF90DF9008958881EECF0F931F93DC
:1010E000CF93DF931F92CDB7DEB782E0898342E4CE
:1010F00050E060E679E080E80E9448080E94850799
:10110000DC0112960D911C910115110589F0D80191
:10111000ED91FC910280F381E02DBE016F5F7F4F66
:10112000C801099597FD04C0F80100851185ECCF31
:1011300089810F90DF91CF911F910F910895615098
:1011400030F02091F100FC0120830196F8CF28981F
:1011500084E680938F010895AF92BF92CF92DF9281
:10116000EF92FF920F931F93CF93DF936C017B015C
:101170008B01040F151FEB015E01AE18BF08C017ED
:10118000D10759F06991D601ED91FC910190F08160
:10119000E02DC6010995892B79F7C501DF91CF9123
:1011A0001F910F91FF90EF90DF90CF90BF90AF9085
:1011B00008953FB7F8948091470190914801A0911C
:1011C0004901B0914A0126B5A89B05C02F3F19F0EF
:1011D0000196A11DB11D3FBFBA2FA92F982F8827B7
:1011E000BC01CD01620F711D811D911D42E0660F92
:1011F000771F881F991F4A95D1F708958F929F9264
:10120000AF92BF92CF92DF92EF92FF926B017C017F
:101210000E94D9084B015C01C114D104E104F1041E
:10122000B9F00E94D908681979098A099B09683EB2
:1012300073408105910580F321E0C21AD108E108CD
:10124000F10888EE880E83E0981EA11CB11CE4CF43
:10125000FF90EF90DF90CF90BF90AF909F908F90D6
:1012600008958F929F92AF92BF92CF92DF92EF92AA
:10127000FF920F931F93CF93DF936C017B018A0141
:1012800080910D01882309F45CC08091900188232E
:1012900009F457C08091820180FF05C08091E00071
:1012A00082608093E000E801B12C8AEFA82E93E0E1
:1012B000892E2AE3922E209711F4BB20D9F10E94A7
:1012C000740781110AC0AA94AA20D9F161E070E0E4
:1012D00080E090E00E94FE08EECF8C171D0611F012
:1012E0000CF08C2F9FB7F8948092E9002091E800D1
:1012F00025FD02C09FBFDFCF282F30E0C21BD30BDC
:10130000F701815020F041914093F100FACFE20EB5
:10131000F31EBB2021F09092E800B12CEBCF80911E
:10132000E80085FDE7CF9092E800BB24B3942097B6
:1013300009F3F3CF5D9884E68093810110161106BE
:101340003CF081E090E0F6019383828310E000E0BE
:10135000C801DF91CF911F910F91FF90EF90DF9027
:10136000CF90BF90AF909F908F900895BC0190E078
:1013700080E00C94FE088FB18095807F669B88602A
:101380001C9B8460089580389105B8F46034710521
:10139000A0F420E191E061FD94E060FD990F62FD11
:1013A0009295687F269FD0011124A80FAF55BE4F9C
:1013B0008C9140FF03C0892B8C93089590958923CD
:1013C000FBCF4F925F926F927F928F929F92AF92DC
:1013D000BF92CF92DF92EF92FF920F931F93CF9322
:1013E000DF93EC014B01881A990A97FE03C0919490
:1013F0008194910885E088169104D4F16C177D07DB
:10140000F4F52E01EB0161E470E005E410E0320137
:101410006C1A7D0A6B01C01AD10AD7FE03C0D194A1
:10142000C194D108730177FE03C08FEFE81AF80A60
:10143000F594E7948FEF061717070CF481E0A82EB8
:10144000880FBB084C165D061CF141E085E088164C
:101450009104DCF0BE01C8010E94C309EC18FD082C
:10146000F7FE04C00A0D1B1DE60CF71C2196EACFFF
:101470008E0195E4492E512CC1E4D0E0C8CF2B0158
:1014800065E470E001E410E0C2CFB801CE01E4CF22
:10149000DF91CF911F910F91FF90EF90DF90CF9050
:1014A000BF90AF909F908F907F906F905F904F9084
:1014B00008950895EF920F931F93CF93DF93EC015C
:1014C0009E816A3069F48D818C836985960F9E8335
:1014D00081E090E0DF91CF911F910F91EF900895FF
:1014E000262F1616B4F461E0690F062E000C770B58
:1014F0008C81082E000C990B3F814AEFE42E31308D
:1015000011F03BEFE32E10E000E04EEA50E00E94C5
:101510003E0598859C5F8C81890F8C83D9CF0F9372
:101520001F93CF93DF938C01D0E0C0E0F801EC0F64
:10153000FD1F6491662341F081EF95E00E945A0AF5
:10154000892B11F02196F2CFCE01DF91CF911F911F
:101550000F910895089590E080E008958F929F92F2
:10156000AF92BF920F931F93CF93DF93CDB7DEB7A8
:10157000A1970FB6F894DEBF0FBECDBF19A24230BF
:1015800008F44AE08E010F5D1F4F842E912CB12C80
:10159000A12CA50194010E947314E62FB901CA0180
:1015A000EA3044F5E05DD801EE938D01232B242B26
:1015B000252B79F790E080E0109769F0FD0101900C
:1015C0000020E9F73197AF014A1B5B0BBD0181EFAA
:1015D00095E00E94AC08A1960FB6F894DEBF0FBE4E
:1015E000CDBFDF91CF911F910F91BF90AF909F9092
:1015F0008F900895E95CD7CFCF93C82FCB010E947D
:101600001914E1EFF5E09BE495839483C683682F7A
:10161000CF01CF910C945A0A1F93CF93DF93182FC9
:10162000CB010E941914C82F30E384FD31E320E37D
:10163000C5FD21E390E3C6FD91E380E3C7FD81E3AF
:101640001F923F931F922F931F929F931F928F93EE
:101650008DE391E09F938F9389E991E09F938F931E
:101660000E94D2148DB79EB70C960FB6F8949EBF09
:101670000FBE8DBF30E3C0FD31E320E3C1FD21E3A8
:1016800090E3C2FD91E380E3C3FD81E31F923F93AA
:101690001F922F931F929F931F928F938DE391E040
:1016A0009F938F93C1E9D1E0DF93CF930E94D2142F
:1016B00084E58093F6058093F5051093F70549E9D5
:1016C00051E0FA0101900020E9F7AF014A59514079
:1016D00069E971E081EF95E00E94AC088CE68093A7
:1016E000F6058093F5051093F70509900020E9F7BA
:1016F000AE01425951408DB79EB70C960FB6F89483
:101700009EBF0FBE8DBF61E971E081EF95E0DF9173
:10171000CF911F910C94AC08CF93C82F803120F447
:101720008CEA90E00E948F0A6C2F70E090E080E0DD
:1017300040E1CF910C94AE0A1F920F920FB60F9218
:1017400011248F939F938091E1009091E100937F0A
:101750009093E10083FF0FC01092E90091E0909315
:10176000EB001092EC0092E39093ED001092900148
:1017700098E09093F00082FF22C093E09093E900FC
:101780009091F200992319F09AE39093E8009091D8
:101790008101992341F090918101915090938101B1
:1017A000911101C05D9A90918F01992341F0909120
:1017B0008F01915090938F01911101C0289A84FF5D
:1017C00018C08091E2008E7E81608093E20080915B
:1017D000E1008F7E8093E100809182018E7E8061A6
:1017E000809382019F918F910F900FBE0F901F9059
:1017F000189580FFF7CF8091E2008E7E8061809304
:10180000E2008091E1008E7E8093E1008091820170
:101810008E7E8160E5CF1F920F920FB60F9211243A
:10182000CF92DF92EF92FF920F931F932F933F93EC
:101830004F935F936F937F938F939F93AF93BF93D8
:10184000EF93FF93CF93DF93CDB7DEB76C97DEBFF7
:10185000CDBF1092E9008091E80083FF25C068E0C9
:10186000CE0145960E949F0882EF8093E8008D8903
:1018700087FF39C09091E80090FFFCCF982F9076B9
:1018800009F034C19E894F89588D2F89F88C9111A8
:1018900031C0803861F5809180018093F100109211
:1018A000F1008EEF8093E8006C960FB6F894DEBFDF
:1018B0000FBECDBFDF91CF91FF91EF91BF91AF915F
:1018C0009F918F917F916F915F914F913F912F9158
:1018D0001F910F91FF90EF90DF90CF900F900FBE70
:1018E0000F901F9018959EEF9093E800C7CF10922D
:1018F000F100D5CF913059F48111D3CF413051054A
:1019000081F6809180018D7F80938001CACF9330D2
:1019100049F48111C6CF4130510519F680918001FB
:101920008260F2CF953041F48091E80080FFFCCFD7
:1019300020682093E300B5CF963009F0A9C00B8D45
:101940001C8D22E01092E90010927E0110927D0120
:10195000F2122EC010927C0110927B010E946E0840
:101960001F8299E09983FA8291E09E8390EA98879A
:101970009AEF998720917D0130917E01275F3F4F3B
:101980003C832B838D831092E90010927E0110928C
:101990007D0110937C0100937B0149E050E0BE0182
:1019A0006F5F7F4F80E00E9448080E946E0879CFE9
:1019B00010937C0100937B010E948507DC01129645
:1019C0000D911C910115110509F451C1D801ED913A
:1019D000FC910480F581E02DBE016B5E7F4FC80154
:1019E0000995009709F03EC1F80100851185EACFFD
:1019F000F3E0FF120EC08F89882309F440C08230C3
:101A000061F440E860E184EC99E00E94870E811166
:101A100048CF81E28093EB0047CF813029F440E842
:101A20006BE088EB99E0F1CF833099F70E9485074E
:101A3000DC011296ED90FC908E010F5F1F4F680144
:101A4000E114F10479F0D701ED91FC910680F78162
:101A5000E02DB801C7010995080F111DF701E084B9
:101A6000F184EECFD8011C92F60101900020E9F735
:101A70003197BF016C197D0940E0C601C6CF62EA0B
:101A800079E0FB01449150E080E80E94480809CFCA
:101A9000973009F4BECF983021F481E08093F100B3
:101AA00000CF993009F0FDCE837009F0B2CFE3E1A9
:101AB000F1E081E031E096E32191222371F08093FF
:101AC000E9003093EB00DF0111972C912093EC009B
:101AD0009093ED008F5F873079F78EE78093EA006F
:101AE0001092EA008F8980939001DBCE8B8D9C8DC4
:101AF0001092E90010927E0110927D0190937C017A
:101B000080937B01898D811192C08E899D89913A44
:101B100049F4813209F07DCF47E050E066E071E0A2
:101B200080E0B3CF913209F074CF833269F48F89AA
:101B3000988DB0E0A0E08093020190930301A09300
:101B40000401B0930501ADCE803269F48091E800C4
:101B500082FFFCCF67E086E091E00E949F088BEF58
:101B60008093E8009ECE823209F09BCE8F898093CD
:101B70000D01EEEFFFE7859194918B3F9C4D51F164
:101B8000E0E0F8E08091060190910701A091080142
:101B9000B0910901803B9440A105B105F1F4809119
:101BA0000D0180FD1AC0EE3F8AE0F80789F587E74E
:101BB00097E7918380838091600080937F0188E123
:101BC0009BE00FB6F894A895809360000FBE9093A9
:101BD000600067CEEEEFFAE0D5CF80819181873744
:101BE000974709F05ECEA895809160008861809348
:101BF000600080917F0180936000EE3F2AE0F20751
:101C000089F08091FE0A9091FF0A9183808349CEEA
:101C1000808191818737980751F29093FF0A8093D2
:101C2000FE0AC5CF1092FF0A1092FE0A3ACE0E9419
:101C30008507DC0112960D911C910115110509F41F
:101C4000E8CED801ED91FC910190F081E02DBE012C
:101C50006B5E7F4FC8010995811123CEF801008585
:101C60001185EBCF181619060CF41BCED2CEF1E07D
:101C7000FF12BECE66EA79E004CF1F920F920FB634
:101C80000F9211242F933F938F939F93AF93BF9302
:101C900080914B0190914C01A0914D01B0914E016A
:101CA0003091460123E0230F2D3758F50196A11DF1
:101CB000B11D2093460180934B0190934C01A0935A
:101CC0004D01B0934E018091470190914801A09140
:101CD0004901B0914A010196A11DB11D80934701B0
:101CE00090934801A0934901B0934A01BF91AF91ED
:101CF0009F918F913F912F910F900FBE0F901F904A
:101D0000189526E8230F0296A11DB11DD2CFEF92A0
:101D1000FF920F931F93CF93DF93F82E192FE62E88
:101D2000042F81E0860F880F0E941A0883E00E942A
:101D30001A08CF2DD12FEC0EFD2EF11CCE15DF058C
:101D4000B9F007FF13C0FE0184910E941A08182FF2
:101D500080E00E941A08812321968111EFCFDF9144
:101D6000CF911F910F91FF90EF9008958881EDCF53
:101D700081E0F5CFE1EAF5E01382128288EE93E08C
:101D8000A0E0B0E084839583A683B7838DE191E0E2
:101D9000918380838FEF9FEF95878487EBEFF5E04A
:101DA0008BE391E0918380831582168280E18783A3
:101DB000148213821186E1EFF5E0138212828FE222
:101DC00091E091838083118681E08087158216825D
:101DD000148287830895789484B5826084BD84B525
:101DE000816084BD85B5826085BD85B5816085BD16
:101DF00080916E00816080936E00109281008091CE
:101E00008100826080938100809181008160809355
:101E1000810080918000816080938000809191009A
:101E20008260809391008091910081608093910005
:101E3000809190008160809390008091C1008460C7
:101E40008093C1008091C10082608093C100809125
:101E5000C10081608093C1008091C3008160809344
:101E6000C3008091C00082608093C0008091C20056
:101E700081608093C20080917A00846080937A00B0
:101E800080917A00826080937A0080917A008160EC
:101E900080937A0080917A00806880937A00109213
:101EA000900110928001109282018091D700816090
:101EB0008093D70080EA8093D80089B5806189BD7E
:101EC00089B5826089BD09B400FEFDCF61E070E094
:101ED00080E090E00E94FE088091D8008F7C8061B5
:101EE0008093D8008091E000807F8093E000809113
:101EF000E1008E7E8093E1008DE08093E200559AB0
:101F0000209A81EC80937C0085B1806F85B984B183
:101F1000877E84B984B1876E84B95E9A5F988AB1EE
:101F2000806D8AB9769A6E9881B3806F81BB8998EB
:101F300080B38D7080BB80E58CBD81E08DBD85E078
:101F400090E00E94B6095F9A85E090E00E94B60991
:101F50005E985C98E0EBF2E08DEB92E024912EBD70
:101F600000000DB407FEFDCF31968E179F07B1F725
:101F70005C9A81E880936400809165008160809321
:101F800065000E9423050E94BB0987FF15C05C986D
:101F900085EA8EBD00000DB407FEFDCF5C9A2E9839
:101FA0002F982D988091640080628093640081E076
:101FB00083BF889513BEFCCF0E94BB0982FF46C039
:101FC0002D980E94BB0984788438D9F42D9A88EC26
:101FD00090E00E94B6092F9882E090E00E941914C8
:101FE0008F3F29F06FEF82E090E00E94331484EF7E
:101FF00091E00E94B6092F9A0E94BB098478843828
:10200000D9F30E94BB0984718431D9F42D9A88ECEC
:1020100090E00E94B6092E9882E090E00E94191488
:10202000882329F060E082E090E00E94331484EF7E
:1020300091E00E94B6092E9A0E94BB0984718431F6
:10204000D9F388EC90E00E94B609B6CF2D9A0E9491
:10205000160582E480930206C2E5D1E012E0E8E7CB
:102060004E2E512C612C712CF6E08F2E912CA12C30
:10207000B12CA3E0CA2ED12CE12CF12C18830E94A4
:10208000C113A30192010E94411460587109810992
:10209000910969830E94C113A50194010E94411412
:1020A0006A830E94C113A70196010E9441146F5FC9
:1020B0007F4F8F4F9F4F6B83165F24961636F1F636
:1020C00063E0462E512C612C712C75E0272E312CAB
:1020D0005DE0952E8FB7F89440914B0150914C01E3
:1020E00060914D0170914E018FBF80910306242FA6
:1020F000281B822F90910406992359F020930506FE
:102100001092040680E090E0892B21F30E940000E9
:10211000DFCF90910206291740F48F5F891790F75F
:1021200081E083BF889513BEEDCF81E080930406E4
:10213000409303068091FE059091FF0501969093D0
:10214000FF058093FE0580910006809301060E94A2
:10215000BB09809300060E94160580917A018130A8
:1021600009F45AC048F0E1E2F2E091E8823009F463
:10217000AEC00E942305C6CF88E00E9433058111BE
:1021800005C084E00E943305882319F081E0809324
:102190007A0142E0E42E10E000E020E04AE558E059
:1021A00061E170E080E290E00E943E058091FE05D2
:1021B0009091FF058F7099278830910540F5C1E116
:1021C000049708F0CEE132E0E32E10E000E020E0DA
:1021D00043E558E069E170E08BE590E00E943E0540
:1021E0006C2F70E041E084E390E00E94C309C0FDE1
:1021F000C0CF22E0E22E10E000E020E04FE458E003
:102200006CE170E08DE290E00E943E05B2CFCFE13C
:102210000C9730F3C0E2E4CF88E00E9433058111CF
:1022200005C084E00E943305882319F082E0809382
:102230007A01C2E5D1E0F9806F2D0F2C000C770BED
:102240008881EE24E3940FEC17E02A8141EE57E0F9
:1022500090E00E943E058B818F0D898381340CF1C3
:102260000E94C1132CE530E040E050E00E94411490
:10227000645671098109910969830E94C11326E09E
:1022800030E040E050E00E9441146A830E94C11394
:10229000A30192010E9441146F5F7F4F8F4F9F4FA8
:1022A0006B83249641E0CA37D40729F6EE24E394E1
:1022B0000DEC12E020E04DE455E06FE070E090E0BE
:1022C00080E0A2CF8191DF01119784608C939150BF
:1022D000C9F7E1EAF3E092E4915059F4E1E2F4E065
:1022E00092E4915061F08191DF01119780628C93AB
:1022F000F8CF8191DF01119781608C93EDCF60E180
:1023000070E080E290E00E94E1096DE370E08DE210
:1023100090E00E94E10982E08093F6058093F50544
:102320001092F70583EC92E00E948F0AC0900001A2
:10233000D09001010D2C000CEE08FF084AE0C70107
:10234000B601F7FE0DC06DE281EF95E00E945A0ADA
:1023500066277727CB016C197D098E099F094AE012
:102360000E94AE0A00910001109101010C50110968
:10237000B12CA12CC0910001D0910101CE010C968D
:10238000801791070CF478C0C8019C5F17FD06C048
:10239000011584E01807CCF0C80194500E9419146C
:1023A000882EC501B1010E94B814EC01623071059C
:1023B00071F16CF477FF1CC0882D0E948C0B0F5FAD
:1023C0001F4F2FEFA21AB20AD5CFC801E7CF653051
:1023D000710594F7899DC02D1124CE5FC093F60539
:1023E000C093F5056D5F7F4F660F660F660F0CC0DB
:1023F000899DC02D1124CE5FC093F605C093F505CD
:10240000660F660F660F625F6093F705D5CF029780
:1024100079F580915101882321F080915001882322
:10242000D9F09AE1E92EF12C83E2C82ED12C41E0BB
:10243000B601C7010E94C3092FEFC21AD20A4BE2AC
:10244000C416D104A1F78FEFE81AF80A97E2E9164B
:10245000F10451F71092F8059C9EC02D1124CE5F17
:10246000C093F605C093F50583E28093F705A4CFEA
:1024700021E02093F805F0CF2297BE018FE00E9463
:10248000FC0ABE018FE00E940C0BC0910001D091AC
:1024900001012197BE0189E10E94FC0ABE0189E188
:1024A0000E940C0BCAE4D0E003E210E041E0B80166
:1024B000CE010E94C3090F5F1F4F0B321105B1F708
:1024C0002196C035D10581F7C3E5D0E003E210E0E5
:1024D00041E0B801CE010E94C3090F5F1F4F0B32CC
:1024E0001105B1F72196C836D10581F7CBE6D0E0CA
:1024F00003E210E041E0B801CE010E94C3090F5F82
:102500001F4F0B321105B1F72196C038D10581F765
:102510001092F805C0910001D0910101BE0183E243
:102520000E94FC0ABE0183E20E940C0B81E08093B2
:10253000F805C0910001D09101012196BE018DE204
:102540000E94FC0ABE018DE20E940C0BC0910001AA
:10255000D09101012296BE0187E30E94FC0ABE01D0
:1025600087E30E940C0B809151018823A9F08130F0
:1025700009F483C08091FE059091FF0564E170E04D
:102580000E94A414892B09F0F4CD8091500191E0B0
:10259000892780935001EDCD80E20E943305882386
:1025A00059F08091000190910101019797FD4FC072
:1025B000909301018093000180E40E9433058823F9
:1025C00071F080910001909101010196811524E044
:1025D00092070CF03FC0909301018093000180E8C6
:1025E0000E943305882369F08091000190910101D8
:1025F0009C012550310937FD32C0309301012093F1
:10260000000180E10E943305882379F08091000168
:10261000909101019C012B5F3F4F211544E034074D
:102620002CF5309301012093000188E00E943305CE
:10263000882309F49FCF81E08093510180910001AC
:10264000909101010E94191480934F0193CF8FEF55
:1026500093E0AECF1092010110920001C0CF8550DF
:102660009C4F9093010180930001CBCF8B5F9340EF
:102670009093010180930001D8CF8DE58093F605FA
:102680008093F5051092F7058DEB92E00E948F0A7A
:1026900080914F010E948C0B0E94BB0987FF0CC0E8
:1026A000C0910001D0910101CE010E94191461E096
:1026B000680FCE010E9421140E94BB0984FF0CC048
:1026C000C0910001D0910101CE010E9419146FEF59
:1026D000680FCE010E94211488E00E9433058823F0
:1026E00009F448CF1092510145CF8F929F92AF923B
:1026F000BF92CF92DF92EF92FF92CF93DF93EC01E4
:10270000688179818A819B816115710581059105B7
:1027100021F464E279ED8BE597E02DE133EF41E0C0
:1027200050E00E94411449015A019B01AC01A7EA03
:10273000B1E40E9460146B017C01ACEEB4EFA50122
:1027400094010E946E14C60ED71EE81EF91EF7FEF5
:1027500006C081E0C81AD108E10880E8F80AC882FA
:10276000D982EA82FB82C701B6019F77DF91CF91C0
:10277000FF90EF90DF90CF90BF90AF909F908F90A1
:1027800008958F929F92AF92BF92CF92DF92EF9275
:10279000FF9260910E0170910F0180911001909154
:1027A0001101611571058105910521F464E279ED4E
:1027B0008BE597E02DE133EF41E050E00E944114BA
:1027C00049015A019B01AC01A7EAB1E40E946014DF
:1027D0006B017C01ACEEB4EFA50194010E946E1474
:1027E000C60ED71EE81EF91EF7FE06C081E0C81A05
:1027F000D108E10880E8F80AC0920E01D0920F01DA
:10280000E0921001F0921101C701B6019F77FF908D
:10281000EF90DF90CF90BF90AF909F908F900895F2
:1028200060930E0170930F0180931001909311013A
:102830000895F999FECF92BD81BDF89A992780B588
:102840000895262FF999FECF92BD81BDF89A019780
:1028500000B4021639F01FBA20BD0FB6F894FA9AE8
:10286000F99A0FBE0895262FF999FECF1FBA92BD8F
:1028700081BD20BD0FB6F894FA9AF99A0FBE019661
:102880000895052E97FB1EF400940E94581457FDDE
:1028900007D00E94731407FC03D04EF40C94581414
:1028A00050954095309521953F4F4F4F5F4F08957C
:1028B00090958095709561957F4F8F4F9F4F0895AC
:1028C0000E949514A59F900DB49F900DA49F800D1C
:1028D000911D11240895B7FF0C9460140E94601498
:1028E000821B930B0895A1E21A2EAA1BBB1BFD01AC
:1028F0000DC0AA1FBB1FEE1FFF1FA217B307E407DF
:10290000F50720F0A21BB30BE40BF50B661F771F36
:10291000881F991F1A9469F7609570958095909516
:102920009B01AC01BD01CF010895A29FB001B39FEF
:10293000C001A39F700D811D1124911DB29F700DC8
:10294000811D1124911D0895AA1BBB1B51E107C0D5
:10295000AA1FBB1FA617B70710F0A61BB70B881F2F
:10296000991F5A95A9F780959095BC01CD010895BE
:1029700097FB072E16F4009407D077FD09D00E942C
:10298000A41407FC05D03EF4909581959F4F0895BF
:10299000709561957F4F0895EE0FFF1F0590F4919C
:1029A000E02D0994AEE0B0E0E8EDF4E10C9481177D
:1029B0000D891E8986E08C831A8309838FEF9FE738
:1029C0009E838D83AE01475E5F4F6F89788DCE0108
:1029D00001960E94F5142F813885020F131FF8010C
:1029E00010822E96E4E00C949D17ABE0B0E0EBEF84
:1029F000F4E10C9473177C013B018A01FC011782FE
:102A00001682838181FFC8C1CE0101965C01F70166
:102A10009381F30193FD859193FF81913F01882379
:102A200009F453C1853239F493FD859193FF819167
:102A30003F01853229F4B70190E00E94E516E7CF07
:102A4000912C212C312CFFE1F31538F08B3211F150
:102A500090F4803209F1833229F137FC3CC020ED3B
:102A6000280F2A3050F536FE20C08AE0989E200DAF
:102A70001124922E06C08D3291F0803371F7689444
:102A800030F8F30193FD859193FF81913F0181110E
:102A9000DACF21C0689431F8689432F8F2CF6894A4
:102AA00033F8EFCF689434F8ECCFEAE02E9E200D97
:102AB0001124222E689435F8E4CF8E3229F436FCA6
:102AC00004C1689436F8DDCF8C3619F4689437F871
:102AD000D8CF8836B1F2982F9F7D95549330E0F08F
:102AE0008336A1F18337C1F1833509F063C0280132
:102AF000F2E04F0E511CF801C080D180692D70E0CA
:102B000036FC02C06FEF7FEFC6010E94CF164C016A
:102B1000689437F882010AC00C5F1F4FFFE3F98306
:102B200088248394912C6501E89437F833FE2DC0F6
:102B3000522C8114910471F5552009F468CFB70126
:102B400080E290E00E94E5165A94F6CFF801808169
:102B500089830E5F1F4FE4CF2801F2E04F0E511C16
:102B6000F801C080D180692D70E036FC02C06FEFA3
:102B70007FEFC6010E94DA164C018201D5CFB70162
:102B800080E290E00E94E5162A942814190409F0C6
:102B9000B0F7CECFF60137FC859137FE81916F01FA
:102BA000B70190E00E94E51651105A94F1E08F1A97
:102BB0009108BFCF843619F0893609F077C0F80143
:102BC00037FE6BC060817181828193810C5F1F4FE2
:102BD000F32DFF763F2E97FF09C090958095709555
:102BE00061957F4F8F4F9F4F689437F82AE030E010
:102BF000A5010E941517C82ECA188C2C432C36FE2E
:102C00000CC0E89440F8C91440F434FE05C032FC0E
:102C100003C0F32DFE7E4F2E892C44FE95C0FE018D
:102C2000EC0DF11D8081803309F087C0242D297EB1
:102C3000422E842D8870582E43FC95C040FE8FC0D4
:102C40009C2C821418F42C0C922C981844FE91C0E1
:102C5000B70180E390E00E94E51642FE09C088E7D4
:102C600090E041FE02C088E590E0B7010E94E516C1
:102C7000C91408F48AC0CA94D12C9FEFC91AD90A82
:102C8000CA0CDB1CF60182916F01B70190E00E9433
:102C9000E516AC14BD04B1F74FCF60817181072EEA
:102CA000000C880B990B0E5F1F4F92CFD32CE8942A
:102CB000D4F82AE030E0853739F1232D297FD22E50
:102CC0008F3601F148F48835A9F0F70186819781A4
:102CD0002B96E2E10C948F17803749F08837A9F7DB
:102CE000D4FE02C06894D2F820E130E00DC06894B0
:102CF000D4F8F6CF34FE03C0822F8660D82E20E1B0
:102D000032E002C028E030E0F801D7FE0FC0608159
:102D10007181828193810C5F1F4FA5010E9415175D
:102D2000C82ECA183D2CE89437F867CF60817181AE
:102D300090E080E00E5F1F4FF0CF42FC02C0839412
:102D400078CF8394839475CF842D867809F471CFDE
:102D5000F6CFB70180E290E00E94E51683948214DA
:102D6000C0F3512C73CF522C5818821408F46ECF34
:102D7000F8CF842D867809F47BCF8BE241FE80E288
:102D800047FC8DE2B70190E071CFB70180E390E09E
:102D90000E94E5169A946CCF8FEF9FEF99CFFC01BC
:102DA0000590615070400110D8F7809590958E0F76
:102DB0009F1F0895FC016150704001900110D8F7E9
:102DC000809590958E0F9F1F08950F931F93CF931B
:102DD000DF93182F092FEB018B8181FD09C01FEFB5
:102DE0000FEF812F902FDF91CF911F910F910895B9
:102DF00082FF14C02E813F818C819D812817390765
:102E00003CF4E881F981CF0101969983888310838E
:102E10008E819F8101969F838E83E3CFE885F9851C
:102E2000812F0995892BA1F3DACFFA01AA2728303F
:102E300051F1203181F1E8946F936E7F6E5F7F4F87
:102E40008F4F9F4FAF4FB1E03ED0B4E03CD0670F03
:102E5000781F891F9A1FA11D680F791F8A1F911D56
:102E6000A11D6A0F711D811D911DA11D20D009F4A6
:102E700068943F912AE0269F11243019305D3193E8
:102E8000DEF6CF010895462F4770405D4193B3E0D1
:102E90000FD0C9F7F6CF462F4F70405D4A3318F078
:102EA000495D31FD4052419302D0A9F7EACFB4E029
:102EB000A6959795879577956795BA95C9F70097E1
:102EC0006105710508959B01AC010A2E0694579582
:102ED000479537952795BA95C9F7620F731F841FD9
:102EE000951FA01D08952F923F924F925F926F926F
:102EF0007F928F929F92AF92BF92CF92DF92EF928A
:102F0000FF920F931F93CF93DF93CDB7DEB7CA1B0A
:102F1000DB0B0FB6F894DEBF0FBECDBF09942A8835
:102F2000398848885F846E847D848C849B84AA84DD
:102F3000B984C884DF80EE80FD800C811B81AA816A
:102F4000B981CE0FD11D0FB6F894DEBF0FBECDBF35
:082F5000ED010895F894FFCF94
:102F58001000FFFFFFFF00E100000000000001007B
:102F6800000000C1808100000000000000990731C6
:102F780009BA07AF070008BE07DC07000000005ABF
:102F88000AAC08AB0AAA0A00000000590A25632502
:062F9800632563256300C0
:00000001FF
