:100000000C942B020C9453020C9453020C94530244
:100010000C9453020C9453020C9453020C9453020C
:100020000C9453020C9453020C9407090C94760917
:100030000C9453020C9453020C9453020C945302EC
:100040000C9453020C9453020C9453020C945302DC
:100050000C9453020C9453020C9453020C94A80B6E
:100060000C9453020C9453020C9453020C945302BC
:100070000C9453020C9453020C9453020C945302AC
:100080000C9453020C9453020C9453020C9453029C
:100090000C9453020C9453020C9453020C9453028C
:1000A0000C9453020C9453020C9453023000040835
:1000B0000000000000000000000000000000000040
:1000C0000000000000000000000000000000000030
:1000D0000000000000000000000000000000000020
:1000E0000000000000000000000000000000000010
:1000F0000000000000000000000000000000000000
:1001000000000000000000000000000000000000EF
:1001100000000000000000000000000000000000DF
:1001200000000000000000000000000000000000CF
:1001300000000000002F0000030003000A1F0A1F38
:10014000042A3F3A22180611162917280003000036
:10015000001E210000211E0005020500081C0800E9
:1001600000201000080808080020000020180601E0
:100170001E29251E223F2000322929261221251A58
:100180000C0A3F08172525191E25251801390503D6
:100190001A25251A0629291E001400002014000023
:1001A0000814220014141414221408000229050251
:1001B0001E212D2E3E09093E3F25251A1E21211202
:1001C0003F21211E3F2525213F0505011E21293AFA
:1001D0003F04043F213F21001021211F3F040A3129
:1001E0003F2020203F02023F3F02043F1E21211EEC
:1001F0003F0909061E21112E3F090936222525191E
:10020000013F01011F20201F0F10201F3F10103F32
:100210003B04043B03043807312D23213F21000018
:1002200001061820013F00000201020020202020CA
:1002300000010200102A2A3C3F2424181C22221408
:100240001824243F1C2A2A2C047E05014C52523EBD
:100250003F040438243D20004040443D3F08142220
:10026000213F20003E04043E3E04023C1C22221C8E
:100270007E22221C1C22227E3E040204242A2A12F0
:10028000021F22201E20201E0E10201E3E10103E97
:10029000360808364E50503E322A262208162100D3
:1002A000003F0000211608000201020100000000CA
:1002B000D5F08D14A1C881CFD9F1AF20004F72695C
:1002C0006720004C6F636174696F6E20000208D470
:1002D000D205087F7F3E1C084120FE0105F1F1F1A7
:1002E00011D1B1D111F1515151515151515151517E
:1002F000515151510000FF00007F7F09090F060096
:100300007F7F19396F46007F7F4949414100266F41
:1003100049497B3200266F49497B32FF0000FFFFCD
:10032000FFFEFFFEFF0279CD95A5CD7901111111D8
:1003300001F9F901010000FF00007F7F09090F06A4
:10034000007F7F40404040007C7E0B0B7E7C00079E
:100350000F78780F0700000000000000FF00001F6A
:100360003F3F33333333333E36363E363E363E360A
:10037000363E36363E360000FF00003E7F41417F6C
:100380003E007F7F0E1C7F7F000000000000000009
:10039000000000000000000000000000003F40508E
:1003A00040404078464141595941414141595941A4
:1003B0004141414141414100007F000001017F7FF7
:1003C0000101007C7E0B0B7E7C007F7F09090F06FC
:1003D000007F7F4949414100000000000000080BF8
:1003E00000020202000009040000010202000005F0
:1003F000240010010524010101042402060524063D
:1004000000010705810310004009040100020A00F1
:1004100000000705020240000007058302400000BB
:100420000403090412010002EF0201404123368057
:1004300000010102030141726475696E6F204C4C2A
:10044000430041726475696E6F204C656F6E617216
:10045000646F0000250C11241FBECFEFDAE0DEBF71
:10046000CDBF11E0A0E0B1E0E8EAF7E202C00590FC
:100470000D92A234B107D9F725E0A2E4B1E001C0A2
:100480001D92AA3DB207E1F712E0CBE2D2E004C030
:100490002197FE010E94F410CA32D107C9F70E94C9
:1004A000560C0C94D2130C94000080E0E5E7F1E0C8
:1004B00081118FEF00248193819381938193039421
:1004C000D1F70895E5E7F1E080E0A0E0B8E0008032
:1004D0000EBC8111012C1197A0FDFDCF0192B9F73F
:1004E0000DB408959091D505982329F49091D405E1
:1004F000982381E009F480E00895FC018091640173
:10050000882311F13FB7F89482E08093E9002091AD
:10051000F200822F90E01816190614F481E090E0A2
:10052000882339F0289844E6409363014091F10014
:100530004083222339F02091F200211103C02BE6E1
:100540002093E8003FBF08958FEF9FEF08952FB7E6
:10055000F89483E08093E9009091E800892F8072FD
:1005600095FF04C09091F20080E4891B2FBF08958D
:1005700080915B0181110DC082E08093570184E07E
:100580008093580110925A011092590181E0809392
:100590005B0187E591E00895CF93DF931F92CDB77C
:1005A000DEB76983DC01ED91FC910280F381E02DDF
:1005B00041E050E0BE016F5F7F4F09950F90DF91E2
:1005C000CF91089583E08093E9008091F200882321
:1005D00019F08AE38093E80008950E94A70290E052
:1005E0000895CF93DF931F92CDB7DEB7FC018485CA
:1005F000958597FD08C02FEF3FEF358724870F9033
:10060000DF91CF910895CE0101960E947D0201975E
:1006100019F4898190E0F3CF8FEF9FEFF0CF0F9324
:100620001F93CF93DF931F92CDB7DEB78C01FC01F0
:100630008485958597FF0BC0CE0101960E947D02AF
:10064000019771F4898190E0F80195878487F8011A
:10065000848595850F90DF91CF911F910F9108951B
:100660008FEF9FEFF1CFFC018485958597FD0BC03F
:100670009FB7F89482E08093E9008091F2009FBFD9
:1006800090E0019608959FB7F89482E08093E90086
:100690008091F2009FBF90E00895409151015091E8
:1006A000520120914F013091500142175307B4F489
:1006B0009091E8009570E1F39091E80092FD19C0E7
:1006C0008093F100809151019091520101968F73B6
:1006D0009927892B19F48EEF8093E80080915101BE
:1006E000909152010196909352018093510181E0C3
:1006F000089580E00895DF92EF92FF920F931F9389
:10070000CF93DF93D82E8A01EB017B01E40EF51E17
:10071000CE15DF0559F0D7FE12C0FE0184910E946C
:100720004D0321968111F4CF0FEF1FEFC801DF9128
:10073000CF911F910F91FF90EF90DF9008958881E6
:10074000EECF0F931F93CF93DF931F92CDB7DEB7FA
:1007500082E0898342E450E06EED73E080E80E941D
:100760007B030E94B802DC0112960D911C910115C9
:10077000110589F0D801ED91FC910280F381E02D03
:10078000BE016F5F7F4FC801099597FD04C0F80156
:1007900000851185ECCF89810F90DF91CF911F915A
:1007A0000F910895615030F02091F100FC012083F9
:1007B0000196F8CF289884E6809363010895AF925C
:1007C000BF92CF92DF92EF92FF920F931F93CF933E
:1007D000DF936C017B018B01040F151FEB015E01A0
:1007E000AE18BF08C017D10759F06991D601ED9135
:1007F000FC910190F081E02DC6010995892B79F7D4
:10080000C501DF91CF911F910F91FF90EF90DF9085
:10081000CF90BF90AF9008953FB7F8948091430177
:1008200090914401A0914501B091460126B5A89B45
:1008300005C02F3F19F00196A11DB11D3FBFBA2F72
:10084000A92F982F8827BC01CD01620F711D811D32
:10085000911D42E0660F771F881F991F4A95D1F7B7
:1008600008958F929F92AF92BF92CF92DF92EF92B4
:10087000FF926B017C010E940C044B015C01C114CE
:10088000D104E104F104B9F00E940C04681979095B
:100890008A099B09683E73408105910580F321E038
:1008A000C21AD108E108F10888EE880E83E0981E8C
:1008B000A11CB11CE4CFFF90EF90DF90CF90BF90D0
:1008C000AF909F908F9008958F929F92AF92BF921A
:1008D000CF92DF92EF92FF920F931F93CF93DF930C
:1008E0006C017B018A0180910D01882309F45CC0B1
:1008F00080916401882309F457C08091560180FFDC
:1009000005C08091E00082608093E000E801B12C96
:100910008AEFA82E93E0892E2AE3922E209711F4D5
:10092000BB20D9F10E94A70281110AC0AA94AA2073
:10093000D9F161E070E080E090E00E943104EECFF8
:100940008C171D0611F00CF08C2F9FB7F894809235
:10095000E9002091E80025FD02C09FBFDFCF282FCE
:1009600030E0C21BD30BF701815020F0419140933E
:10097000F100FACFE20EF31EBB2021F09092E800C6
:10098000B12CEBCF8091E80085FDE7CF9092E80095
:10099000BB24B394209709F3F3CF5D9884E680934A
:1009A0005501101611063CF081E090E0F6019383AA
:1009B000828310E000E0C801DF91CF911F910F9179
:1009C000FF90EF90DF90CF90BF90AF909F908F906F
:1009D00008954F925F926F927F928F929F92AF9203
:1009E000BF92CF92DF92EF92FF920F931F93CF931C
:1009F000DF934C015901FC2DC02FD0E0CE01880DB2
:100A0000991D181619060CF067C09B012E0D311D9B
:100A1000121613060CF060C0603471050CF05CC057
:100A20004115510509F458C0262F2770F22EDB011D
:100A300077FD179633E0B595A7953A95E1F73A2FEC
:100A400077FF04C0FF2011F03FEF3A0F66277727AA
:100A50006819790997FC02C070E060E08038910560
:100A60000CF44BC090E89819961BA32F032E000C92
:100A7000BB0B1A2F10953F3F0CF010E021E08E2D9C
:100A8000877009F420E0E694E694E694E20EAE0D59
:100A9000B11D19971CF028E0E22EE31AE11A310F7C
:100AA00020E83203D0011124A80DB91DA60FB71FED
:100AB000019F600D711D1124460F571F0F2D0F2C24
:100AC000000C110BF33009F41CC1C8F4F13009F427
:100AD000D0C0F23009F47CC0DF91CF911F910F910B
:100AE000FF90EF90DF90CF90BF90AF909F908F904E
:100AF0007F906F905F904F900895902FB5CFFA3F01
:100B0000B1F1232F2E0DFB3F39F7321729F3BD0129
:100B10006B587E4FD12CC12CC91608F0A4C0FA0125
:100B2000EC0DFD1DE491F0E04F01002E02C0880C99
:100B3000991C0A94E2F737FD06C0FB018081E82C7E
:100B4000E0948E218083FF2061F0373054F45B0104
:100B5000F0E8AF0EB11CE92CE094F50180818E2104
:100B60008083FFEFCF1ADF0A6F5F7F4FD5CF232F30
:100B70002E0D321709F4B0CFBD016B587E4FD12C2A
:100B8000C12CC91608F069C0FA01EC0DFD1DE491F5
:100B9000F0E04F01002E02C0880C991C0A94E2F785
:100BA00037FD04C0FB01808188298083FF2051F03C
:100BB000373044F45B01F0E8AF0EB11CF5018081E1
:100BC00089298083FFEFCF1ADF0A6F5F7F4FD9CF6C
:100BD0006FEF70E00F2C02C0660F771F0A94E2F7E8
:100BE00060957095772E232F2E0D321709F474CF50
:100BF000FD01EB58FE4F6F01B12CA12CA91638F561
:100C0000FA01EA0DFB1DE491F0E02F01002E02C075
:100C1000440C551C0A94E2F737FD05C0F6018081AB
:100C2000862384298083FF2059F037304CF4460115
:100C3000F0E88F0E911CF401808187218529808343
:100C4000FFEFAF1ABF0A8FEFC81AD80AD7CF3F5F9E
:100C50004C0F5D1FA058BF4FC8CF3F5F4C0F5D1FAB
:100C6000A058BF4F86CF3F5F4C0F5D1FA058BF4FAE
:100C70004CCF6A0D7B1D232F2E0D321709F42CCF7C
:100C8000FD01EB58FE4F6F01B12CA12CA91688F580
:100C9000FB01EA0DFB1D8490912C002E02C0880CF4
:100CA000991C0A94E2F780949094FA01EA0DFB1DD6
:100CB0006490712C002E02C0660C771C0A94E2F737
:100CC00037FD05C0F6018081882186298083FF20B9
:100CD00049F037303CF4F601E058FF4F808189211C
:100CE00087298083FFEFAF1ABF0A8FEFC81AD80A8F
:100CF000CDCF3F5F4C0F5D1F6C0F7D1FA058BF4FC6
:100D0000BCCFC92ED12CFA01E60FF71FAB58BE4F4E
:100D100000E810E00C191D09CC19DD09BE01660FB1
:100D2000771F41E050E06A010F2C01C0CC0C0A94FF
:100D3000EAF7592F2E2D792ECF93DF93ED01EF9601
:100D4000EF9622968590A590FF2059F08C9C40014B
:100D5000AC9C500137302CF4E880B094EB20E928AB
:100D6000E99233233AF0EC90A094EA20E828ED923F
:100D70000C94BB0611965A9529F72A9551F0572DD8
:100D800033951124E60FF11DA00FB11DC00FD11D29
:100D9000D9CFDF91CF9111249FCECF92EF920F93B5
:100DA000FA0104913196E4904E5F5F4F22E0C22E2B
:100DB00030E020E00E94E9040F91EF90CF90089579
:100DC000BC0190E080E00C9431048FB18095807F6D
:100DD000669B88601C9B8460089580389105B8F4F8
:100DE00060347105A0F420E191E061FD94E060FDC4
:100DF000990F62FD9295687F269FD0011124A80F5C
:100E0000AB58BE4F8C9140FF03C0892B8C93089543
:100E100090958923FBCF4F925F926F927F928F9232
:100E20009F92AF92BF92CF92DF92EF92FF920F9379
:100E30001F93CF93DF93EC014B01881A990A97FE19
:100E400003C091948194910885E088169104D4F1AF
:100E50006C177D07F4F52E01EB0161E470E005E409
:100E600010E032016C1A7D0A6B01C01AD10AD7FE5C
:100E700003C0D194C194D108730177FE03C08FEFF2
:100E8000E81AF80AF594E7948FEF061717070CF4A1
:100E900081E0A82E880FBB084C165D061CF141E0CE
:100EA00085E088169104DCF0BE01C8010E94ED06C1
:100EB000EC18FD08F7FE04C00A0D1B1DE60CF71C1C
:100EC0002196EACF8E0195E4492E512CC1E4D0E061
:100ED000C8CF2B0165E470E001E410E0C2CFB80197
:100EE000CE01E4CFDF91CF911F910F91FF90EF9052
:100EF000DF90CF90BF90AF909F908F907F906F903A
:100F00005F904F9008950895CF92EF920F93CF93F3
:100F1000DF93EC01A62F6E81AA3069F48D818C835A
:100F20008985680F6E8381E090E0DF91CF910F910A
:100F3000EF90CF9008951A16ACF56F5F062E000C57
:100F4000770B8C81082E000C990BEEEAF0E02FEA6B
:100F500030E0B0E04F81413059F50491F901E4905F
:100F60002E2D277041E050E011F450E040E02E2D8E
:100F7000269526952695240F352F311D029FF001C9
:100F8000039FF00D1124EA9FA001EB9F500DFA9FE3
:100F9000500D112440555F4F3AEFC32E30E020E052
:100FA0000E94E90498859C5F8C81890F8C83BBCF5C
:100FB0000491F901E4902E2D277041E050E011F4E6
:100FC00050E040E02E2D269526952695240F352FAE
:100FD000311D029FF001039FF00D1124EA9FA00133
:100FE000EB9F500DFA9F500D112440555F4F2BEF92
:100FF000C22ED4CF0F931F93CF93DF938C01D0E0F9
:10100000C0E0F801EC0FFD1F6491662341F085EC10
:1010100095E00E948407892B11F02196F2CFCE0132
:10102000DF91CF911F910F910895089590E080E096
:1010300008958F929F92AF92BF920F931F93CF9379
:10104000DF93CDB7DEB7A1970FB6F894DEBF0FBE22
:10105000CDBF19A2423008F44AE08E010F5D1F4F48
:10106000842E912CB12CA12CA50194010E94AA10D0
:10107000E62FB901CA01EA3044F5E05DD801EE93EC
:101080008D01232B242B252B79F790E080E01097FE
:1010900069F0FD0101900020E9F73197AF014A1B8B
:1010A0005B0BBD0185EC95E00E94DF03A1960FB6B6
:1010B000F894DEBF0FBECDBFDF91CF911F910F918E
:1010C000BF90AF909F908F900895E95CD7CFCF935A
:1010D000C82FCB010E948210E5ECF5E09BE49583DC
:1010E0009483C683682FCF01CF910C9484071F93FC
:1010F000CF93DF93182FCB010E948210C82F30E3CB
:1011000084FD31E320E3C5FD21E390E3C6FD91E3D7
:1011100080E3C7FD81E31F923F931F922F931F929D
:101120009F931F928F9389E391E09F938F938DE616
:1011300091E09F938F930E94FA108DB79EB70C9603
:101140000FB6F8949EBF0FBE8DBF30E3C0FD31E3F4
:1011500020E3C1FD21E390E3C2FD91E380E3C3FD01
:1011600081E31F923F931F922F931F929F931F9291
:101170008F9389E391E09F938F93C5E6D1E0DF934E
:10118000CF930E94FA1084E58093CA058093C90525
:101190001093CB054DE651E0FA0101900020E9F7EC
:1011A000AF014E5651406DE671E085EC95E00E942E
:1011B000DF038CE68093CA058093C9051093CB05A5
:1011C00009900020E9F7AE01465651408DB79EB711
:1011D0000C960FB6F8949EBF0FBE8DBF65E671E00A
:1011E00085EC95E0DF91CF911F910C94DF03CF93B5
:1011F000C82F803120F48CEA90E00E94FA076C2F0F
:1012000070E090E080E040E1CF910C9419081F92CB
:101210000F920FB60F9211248F939F938091E1004C
:101220009091E100937F9093E10083FF0FC01092B3
:10123000E90091E09093EB001092EC0092E3909320
:10124000ED001092640198E09093F00082FF22C0BC
:1012500093E09093E9009091F200992319F09AE3BA
:101260009093E80090915501992341F09091550198
:10127000915090935501911101C05D9A9091630135
:10128000992341F0909163019150909363019111E2
:1012900001C0289A84FF18C08091E2008E7E816090
:1012A0008093E2008091E1008F7E8093E100809145
:1012B00056018E7E8061809356019F918F910F9091
:1012C0000FBE0F901F90189580FFF7CF8091E2001E
:1012D0008E7E80618093E2008091E1008E7E80931B
:1012E000E100809156018E7E8160E5CF1F920F92C2
:1012F0000FB60F921124CF92DF92EF92FF920F93CD
:101300001F932F933F934F935F936F937F938F938D
:101310009F93AF93BF93EF93FF93CF93DF93CDB79B
:10132000DEB76C97DEBFCDBF1092E9008091E80078
:1013300083FF25C068E0CE0145960E94D20382EF6C
:101340008093E8008D8987FF39C09091E80090FF75
:10135000FCCF982F907609F034C19E894F89588D23
:101360002F89F88C911131C0803861F5809154013A
:101370008093F1001092F1008EEF8093E8006C965C
:101380000FB6F894DEBF0FBECDBFDF91CF91FF91B6
:10139000EF91BF91AF919F918F917F916F915F91ED
:1013A0004F913F912F911F910F91FF90EF90DF9000
:1013B000CF900F900FBE0F901F9018959EEF9093B7
:1013C000E800C7CF1092F100D5CF913059F48111C8
:1013D000D3CF4130510581F6809154018D7F8093A8
:1013E0005401CACF933049F48111C6CF4130510521
:1013F00019F6809154018260F2CF953041F48091CA
:10140000E80080FFFCCF20682093E300B5CF963042
:1014100009F0A9C00B8D1C8D22E01092E9001092FA
:10142000520110925101F2122EC0109250011092EE
:101430004F010E94A1031F8299E09983FA8291E0F3
:101440009E8390EA98879AEF998720915101309175
:101450005201275F3F4F3C832B838D831092E9001D
:1014600010925201109251011093500100934F01BC
:1014700049E050E0BE016F5F7F4F80E00E947B0338
:101480000E94A10379CF1093500100934F010E9455
:10149000B802DC0112960D911C910115110509F499
:1014A00051C1D801ED91FC910480F581E02DBE0180
:1014B0006B5E7F4FC8010995009709F03EC1F801A6
:1014C00000851185EACFF3E0FF120EC08F898823D3
:1014D00009F440C0823061F440E860E182E494E0C5
:1014E0000E94F20B811148CF81E28093EB0047CF3D
:1014F000813029F440E86BE086E394E0F1CF83305B
:1015000099F70E94B802DC011296ED90FC908E01D2
:101510000F5F1F4F6801E114F10479F0D701ED91DD
:10152000FC910680F781E02DB801C7010995080FED
:10153000111DF701E084F184EECFD8011C92F60171
:1015400001900020E9F73197BF016C197D0940E057
:10155000C601C6CF60E274E0FB01449150E080E830
:101560000E947B0309CF973009F4BECF983021F455
:1015700081E08093F10000CF993009F0FDCE8370B7
:1015800009F0B2CFEFE0F1E081E031E096E32191A4
:10159000222371F08093E9003093EB00DF01119773
:1015A0002C912093EC009093ED008F5F873079F7BA
:1015B0008EE78093EA001092EA008F89809364019D
:1015C000DBCE8B8D9C8D1092E9001092520110920F
:1015D00051019093500180934F01898D811192C0E8
:1015E0008E899D89913A49F4813209F07DCF47E097
:1015F00050E066E071E080E0B3CF913209F074CF43
:10160000833269F48F89988DB0E0A0E08093020165
:1016100090930301A0930401B0930501ADCE8032F5
:1016200069F48091E80082FFFCCF67E086E091E0FA
:101630000E94D2038BEF8093E8009ECE823209F0A5
:101640009BCE8F8980930D01EEEFFFE785919491FA
:101650008B3F9C4D51F1E0E0F8E0809106019091C4
:101660000701A0910801B0910901803B9440A105B8
:10167000B105F1F480910D0180FD1AC0EE3F8AE0C2
:10168000F80789F587E797E7918380838091600069
:101690008093530188E19BE00FB6F894A89580935E
:1016A00060000FBE9093600067CEEEEFFAE0D5CFFA
:1016B000808191818737974709F05ECEA895809108
:1016C0006000886180936000809153018093600086
:1016D000EE3F2AE0F20789F08091FE0A9091FF0A1E
:1016E0009183808349CE808191818737980751F219
:1016F0009093FF0A8093FE0AC5CF1092FF0A1092C2
:10170000FE0A3ACE0E94B802DC0112960D911C919D
:101710000115110509F4E8CED801ED91FC91019075
:10172000F081E02DBE016B5E7F4FC80109958111EC
:1017300023CEF80100851185EBCF181619060CF49D
:101740001BCED2CEF1E0FF12BECE64E274E004CF35
:101750001F920F920FB60F9211242F933F938F93E6
:101760009F93AF93BF938091470190914801A091BF
:101770004901B0914A013091420123E0230F2D37F6
:1017800058F50196A11DB11D209342018093470198
:1017900090934801A0934901B0934A01809143017D
:1017A00090914401A0914501B09146010196A11D7F
:1017B000B11D8093430190934401A0934501B093E0
:1017C0004601BF91AF919F918F913F912F910F90C3
:1017D0000FBE0F901F90189526E8230F0296A11DAB
:1017E000B11DD2CFEF92FF920F931F93CF93DF9350
:1017F000F82E192FE62E042F81E0860F880F0E9405
:101800004D0383E00E944D03CF2DD12FEC0EFD2E12
:10181000F11CCE15DF05B9F007FF13C0FE0184915E
:101820000E944D03182F80E00E944D0381232196D2
:101830008111EFCFDF91CF911F910F91FF90EF902A
:1018400008958881EDCF81E0F5CFE5E7F5E01382DB
:10185000128288EE93E0A0E0B0E084839583A683B3
:10186000B78389E191E0918380838FEF9FEF958724
:101870008487EFECF5E087E391E091838083158224
:10188000168280E18783148213821186E5ECF5E0ED
:10189000138212828BE291E091838083118681E032
:1018A000808715821682148287830895CF93DF93F1
:1018B00000D01F92CDB7DEB7789484B5826084BD26
:1018C00084B5816084BD85B5826085BD85B5816044
:1018D00085BD80916E00816080936E0010928100C2
:1018E000809181008260809381008091810081607D
:1018F000809381008091800081608093800080913E
:10190000910082608093910080919100816080932A
:101910009100809190008160809390008091C1003F
:1019200084608093C1008091C10082608093C10077
:101930008091C10081608093C1008091C30081606B
:101940008093C3008091C00082608093C00080912A
:10195000C20081608093C20080917A00846080938D
:101960007A0080917A00826080937A0080917A0078
:10197000816080937A0080917A00806880937A00F9
:101980001092640110925401109256018091D70078
:1019900081608093D70080EA8093D80089B5806108
:1019A00089BD89B5826089BD09B400FEFDCF61E0C3
:1019B00070E080E090E00E9431048091D8008F7C3C
:1019C00080618093D8008091E000807F8093E00068
:1019D0008091E1008E7E8093E1008DE08093E200B3
:1019E000559A209A81EC80937C0085B1806F85B9EF
:1019F00084B1877E84B984B1876E84B95E9A5F981A
:101A00008AB1806D8AB9769A6E9881B3806F81BBF6
:101A1000899880B38D7080BB80E58CBD81E08DBDE1
:101A200085E090E00E94E0065F9A85E090E00E94E9
:101A3000E0065E985C98E0EBF2E08DEB92E024919A
:101A40002EBD00000DB407FEFDCF31968E179F0707
:101A5000B1F75C9A81E880936400809165008160B1
:101A6000809365000E9462020E94E50687FF15C010
:101A70005C9885EA8EBD00000DB407FEFDCF5C9A30
:101A80002E982F982D988091640080628093640036
:101A900081E083BF889513BEFCCF0E94E50682FFDC
:101AA00046C02D980E94E50684788438D9F42D9A92
:101AB00088EC90E00E94E0062F9882E090E00E947F
:101AC00082108F3F29F06FEF82E090E00E949C101F
:101AD00084EF91E00E94E0062F9A0E94E506847848
:101AE0008438D9F30E94E50684718431D9F42D9AA3
:101AF00088EC90E00E94E0062E9882E090E00E9440
:101B00008210882329F060E082E090E00E949C101F
:101B100084EF91E00E94E0062E9A0E94E50684710F
:101B20008431D9F388EC90E00E94E006B6CF2D9A7C
:101B30000E94550282E48093D6052DE0222E34E1E6
:101B4000432E512C40E0642E40E0742EAA24AA9427
:101B500053E0B52E332433948FB7F8944091470166
:101B6000509148016091490170914A018FBF809165
:101B7000D705242F281B822F9091D805992351F047
:101B80002093D9051092D8056114710429F30E949D
:101B90000000E0CF9091D605291738F48F5F8917A0
:101BA00098F733BE889513BEEFCF3092D805409397
:101BB000D7058091D2059091D30501969093D305D6
:101BC0008093D2058091D4058093D5050E94E506C7
:101BD0008093D4050E94550280914E01882349F0DC
:101BE000E5EFF1E091E8813009F44FC00E94620214
:101BF000CBCF88E00E947202811104C084E00E9471
:101C00007202811130924E0148ED52E061E170E0C4
:101C100080E290E00E94CD068091D2059091D3059C
:101C20008F7099278830910528F40497D8F09EE1A9
:101C300099831AC00C9708F54FE149834981642FB5
:101C400070E041E084E390E00E94ED06898180FD30
:101C5000CDCF4DEC52E06CE170E08DE290E00E945F
:101C6000CD06C4CF81E1898341ED52E069E170E0A6
:101C70008BE590E00E94CD06E1CF20E22983DECF04
:101C80008191DF01119784608C939150C9F7E5E74A
:101C9000F3E092E4915059F4E5EFF3E092E49150CF
:101CA00061F08191DF01119780628C93F8CF81916F
:101CB000DF01119781608C93EDCF60E170E080E2ED
:101CC00090E00E940B076DE370E08DE290E00E94CF
:101CD0000B0782E08093CA058093C9051092CB055B
:101CE00083EC92E00E94FA07C0900001D0900101BD
:101CF0000D2C000CEE08FF084AE0C701B601F7FE04
:101D00000DC06DE285EC95E00E9484076627772779
:101D1000CB016C197D098E099F094AE00E941908C0
:101D200000910001109101010C501109D12CC12C1E
:101D300080910001909101019B838A830C9680170A
:101D400091070CF47EC0C8019C5F17FD06C0011509
:101D500094E01907DCF0C80194500E948210898336
:101D6000C60165E070E00E94E0109B838A836230C8
:101D7000710581F16CF477FF1DC089810E94F7081D
:101D80000F5F1F4F8FEFC81AD80AD2CFC801E5CF17
:101D90006530710594F74A81429D402D11244E5FB4
:101DA0004093C9054093CA056D5F7F4F660F660F6C
:101DB000660F0DC02A81229D202D11242E5F2093B5
:101DC000C9052093CA05660F660F660F625F6093B0
:101DD000CB05D3CF8A819B81029781F580914D01FC
:101DE000882321F080914C018823D9F09AE1E92ED3
:101DF000F12C83E2882E912C41E0B401C7010E94AE
:101E0000ED069FEF891A990A2BE282169104A1F739
:101E10004FEFE41AF40A87E2E816F10451F7109242
:101E2000CC059A81299E902D11249E5F9093C9051F
:101E30009093CA0523E22093CB059FCF3092CC0527
:101E4000F0CF8A819B8102979B838A83BC018FE0BC
:101E50000E9467086A817B818FE00E9477088091E9
:101E600000019091010101979B838A83BC0189E164
:101E70000E9467086A817B8189E10E9477088AE471
:101E800090E09B838A8303E210E041E0B8018A81FD
:101E90009B810E94ED060F5F1F4F0B321105A9F7C2
:101EA0008A819B8101969B838A838035910559F7AE
:101EB00083E590E09B838A8303E210E041E0B80170
:101EC0008A819B810E94ED060F5F1F4F0B32110527
:101ED000A9F78A819B8101969B838A838836910525
:101EE00059F78BE690E09B838A8303E210E041E0A0
:101EF000B8018A819B810E94ED060F5F1F4F0B3254
:101F00001105A9F78A819B8101969B838A8380387A
:101F1000910559F71092CC05809100019091010133
:101F20009B838A83BC0183E20E9467086A817B816C
:101F300083E20E9477083092CC0580910001909155
:101F4000010101969B838A83BC018DE20E94670890
:101F50006A817B818DE20E947708809100019091D7
:101F6000010102969B838A83BC0187E30E94670874
:101F70006A817B8187E30E94770880914D018823E5
:101F800099F0813009F482C08091D2059091D305F7
:101F9000B2010E94CC10892B09F028CE80914C010F
:101FA000832580934C0122CE80E20E947202882316
:101FB00059F08091000190910101019797FD4EC069
:101FC000909301018093000180E40E9472028823B3
:101FD00071F080910001909101010196811524E03A
:101FE00092070CF040C0909301018093000180E8BB
:101FF0000E947202882369F0809100019091010192
:102000009C012550310937FD33C0309301012093E5
:10201000000180E10E947202882379F08091000122
:10202000909101019C012B5F3F4F211544E0340743
:1020300034F5309301012093000188E00E94720280
:10204000882309F4A1CF30924D0180910001909135
:1020500001010E94821080934B0196CFB092010142
:10206000A0920001B1CF1092010110920001BFCFE8
:1020700085509C4F9093010180930001CACF8B5FE4
:1020800093409093010180930001D7CF8DE5809319
:10209000CA058093C9051092CB058DEB92E00E9492
:1020A000FA0780914B010E94F7080E94E50687FF1E
:1020B0000EC080910001909101019B838A830E9450
:1020C000821061E0680F8A819B810E948A100E94C1
:1020D000E50684FF0EC080910001909101019B8371
:1020E0008A830E9482106FEF680F8A819B810E9411
:1020F0008A1088E00E947202882309F445CF10926A
:102100004D0142CFF999FECF92BD81BDF89A992732
:1021100080B50895262FF999FECF92BD81BDF89A1A
:10212000019700B4021639F01FBA20BD0FB6F8941B
:10213000FA9AF99A0FBE0895262FF999FECF1FBA81
:1021400092BD81BD20BD0FB6F894FA9AF99A0FBEE0
:1021500001960895A1E21A2EAA1BBB1BFD010DC01A
:10216000AA1FBB1FEE1FFF1FA217B307E407F50747
:1021700020F0A21BB30BE40BF50B661F771F881F23
:10218000991F1A9469F760957095809590959B01B9
:10219000AC01BD01CF010895AA1BBB1B51E107C0D3
:1021A000AA1FBB1FA617B70710F0A61BB70B881FE7
:1021B000991F5A95A9F780959095BC01CD01089576
:1021C00097FB072E16F4009407D077FD09D00E94E4
:1021D000CC1007FC05D03EF4909581959F4F089553
:1021E000709561957F4F0895EE0FFF1F0590F49154
:1021F000E02D0994AEE0B0E0E0E0F1E10C94A91329
:102200000D891E8986E08C831A8309838FEF9FE7EF
:102210009E838D83AE01475E5F4F6F89788DCE01BF
:1022200001960E941D112F813885020F131FF8019E
:1022300010822E96E4E00C94C513ABE0B0E0E3E22C
:10224000F1E10C949B137C013B018A01FC01178294
:102250001682838181FFC8C1CE0101965C01F7011E
:102260009381F30193FD859193FF81913F01882331
:1022700009F453C1853239F493FD859193FF81911F
:102280003F01853229F4B70190E00E940D13E7CF9A
:10229000912C212C312CFFE1F31538F08B3211F108
:1022A00090F4803209F1833229F137FC3CC020EDF3
:1022B000280F2A3050F536FE20C08AE0989E200D67
:1022C0001124922E06C08D3291F0803371F76894FC
:1022D00030F8F30193FD859193FF81913F018111C6
:1022E000DACF21C0689431F8689432F8F2CF68945C
:1022F00033F8EFCF689434F8ECCFEAE02E9E200D4F
:102300001124222E689435F8E4CF8E3229F436FC5D
:1023100004C1689436F8DDCF8C3619F4689437F828
:10232000D8CF8836B1F2982F9F7D95549330E0F046
:102330008336A1F18337C1F1833509F063C02801E9
:10234000F2E04F0E511CF801C080D180692D70E081
:1023500036FC02C06FEF7FEFC6010E94F7124C01FE
:10236000689437F882010AC00C5F1F4FFFE3F983BE
:1023700088248394912C6501E89437F833FE2DC0AE
:10238000522C8114910471F5552009F468CFB701DE
:1023900080E290E00E940D135A94F6CFF8018081FC
:1023A00089830E5F1F4FE4CF2801F2E04F0E511CCE
:1023B000F801C080D180692D70E036FC02C06FEF5B
:1023C0007FEFC6010E9402134C018201D5CFB701F5
:1023D00080E290E00E940D132A942814190409F059
:1023E000B0F7CECFF60137FC859137FE81916F01B2
:1023F000B70190E00E940D1351105A94F1E08F1A2A
:102400009108BFCF843619F0893609F077C0F801FA
:1024100037FE6BC060817181828193810C5F1F4F99
:10242000F32DFF763F2E97FF09C09095809570950C
:1024300061957F4F8F4F9F4F689437F82AE030E0C7
:10244000A5010E943D13C82ECA188C2C432C36FEC1
:102450000CC0E89440F8C91440F434FE05C032FCC6
:1024600003C0F32DFE7E4F2E892C44FE95C0FE0145
:10247000EC0DF11D8081803309F087C0242D297E69
:10248000422E842D8870582E43FC95C040FE8FC08C
:102490009C2C821418F42C0C922C981844FE91C099
:1024A000B70180E390E00E940D1342FE09C088E767
:1024B00090E041FE02C088E590E0B7010E940D1354
:1024C000C91408F48AC0CA94D12C9FEFC91AD90A3A
:1024D000CA0CDB1CF60182916F01B70190E00E94EB
:1024E0000D13AC14BD04B1F74FCF60817181072E7D
:1024F000000C880B990B0E5F1F4F92CFD32CE894E2
:10250000D4F82AE030E0853739F1232D297FD22E07
:102510008F3601F148F48835A9F0F701868197815B
:102520002B96E2E10C94B713803749F08837A9F76E
:10253000D4FE02C06894D2F820E130E00DC0689467
:10254000D4F8F6CF34FE03C0822F8660D82E20E167
:1025500032E002C028E030E0F801D7FE0FC0608111
:102560007181828193810C5F1F4FA5010E943D13F1
:10257000C82ECA183D2CE89437F867CF6081718166
:1025800090E080E00E5F1F4FF0CF42FC02C08394CA
:1025900078CF8394839475CF842D867809F471CF96
:1025A000F6CFB70180E290E00E940D13839482146D
:1025B000C0F3512C73CF522C5818821408F46ECFEC
:1025C000F8CF842D867809F47BCF8BE241FE80E240
:1025D00047FC8DE2B70190E071CFB70180E390E056
:1025E0000E940D139A946CCF8FEF9FEF99CFFC014F
:1025F0000590615070400110D8F7809590958E0F2E
:102600009F1F0895FC016150704001900110D8F7A0
:10261000809590958E0F9F1F08950F931F93CF93D2
:10262000DF93182F092FEB018B8181FD09C01FEF6C
:102630000FEF812F902FDF91CF911F910F91089570
:1026400082FF14C02E813F818C819D81281739071C
:102650003CF4E881F981CF01019699838883108346
:102660008E819F8101969F838E83E3CFE885F985D4
:10267000812F0995892BA1F3DACFFA01AA272830F7
:1026800051F1203181F1E8946F936E7F6E5F7F4F3F
:102690008F4F9F4FAF4FB1E03ED0B4E03CD0670FBB
:1026A000781F891F9A1FA11D680F791F8A1F911D0E
:1026B000A11D6A0F711D811D911DA11D20D009F45E
:1026C00068943F912AE0269F11243019305D3193A0
:1026D000DEF6CF010895462F4770405D4193B3E089
:1026E0000FD0C9F7F6CF462F4F70405D4A3318F030
:1026F000495D31FD4052419302D0A9F7EACFB4E0E1
:10270000A6959795879577956795BA95C9F7009798
:102710006105710508959B01AC010A2E0694579539
:10272000479537952795BA95C9F7620F731F841F90
:10273000951FA01D08952F923F924F925F926F9226
:102740007F928F929F92AF92BF92CF92DF92EF9241
:10275000FF920F931F93CF93DF93CDB7DEB7CA1BC2
:10276000DB0B0FB6F894DEBF0FBECDBF09942A88ED
:10277000398848885F846E847D848C849B84AA8495
:10278000B984C884DF80EE80FD800C811B81AA8122
:10279000B981CE0FD11D0FB6F894DEBF0FBECDBFED
:0827A000ED010895F894FFCF4C
:1027A8001000FFFFFFFF00E100000000000000C173
:1027B800808100000000000000CC026404ED02E209
:1027C800023303F1020F03000000008407DF031641
:1027D8000815080000000083072563256325632585
:0227E80063008C
:00000001FF
